:020000040800F2
:100000007806002089010008B1120008E5110008F7
:10001000AD12000891020008211400080000000041
:100020000000000000000000000000006113000854
:10003000950200080000000021130008B913000811
:10004000A3010008A3010008A3010008A301000800
:10005000A3010008A3010008A301000899020008F9
:10006000A5020008A3010008A3010008A3010008DD
:10007000A3010008A3010008A3010008A3010008D0
:10008000A3010008A3010008A3010008A3010008C0
:10009000A3010008A3010008A3010008A3010008B0
:1000A000A3010008A3010008A3010008A3010008A0
:1000B000A3010008A301000800000000A30100083C
:1000C000A30100080000000000000000A3010008D8
:1000D00000000000A3010008A301000800000000C8
:1000E000A3010008A3010008A301000800F002F822
:1000F00000F03AF80AA090E8000C82448344AAF188
:100100000107DA4501D100F02FF8AFF2090EBAE885
:100110000F0013F0010F18BFFB1A43F0010318473B
:10012000E414000004150000103A24BF78C878C118
:10013000FAD8520724BF30C830C144BF04680C60ED
:10014000704700000023002400250026103A28BF35
:1001500078C1FBD8520728BF30C148BF0B60704739
:100160001FB51FBD10B510BD00F058F81146FFF7C0
:10017000F7FF01F0B7F900F076F803B4FFF7F2FFEC
:1001800003BC00F07DF8000009488047094800479B
:10019000FEE7FEE7FEE7FEE7FEE7FEE7FEE7FEE737
:1001A000FEE7FEE704480549054A064B7047000094
:1001B0001D140008ED0000087800002078060020DB
:1001C00078020020780200204FF0000200B51346AC
:1001D00094469646203922BFA0E80C50A0E80C5067
:1001E000B1F12001BFF4F7AF090728BFA0E80C5018
:1001F00048BF0CC05DF804EB890028BF40F8042B11
:1002000008BF704748BF20F8022B11F0804F18BF7D
:1002100000F8012B7047704770477047754600F033
:100220002BF8AE4605006946534620F00700854688
:1002300018B020B5FFF7B6FFBDE820404FF000062C
:100240004FF000074FF000084FF0000BAC46ACE851
:10025000C009ACE8C009ACE8C009ACE8C00921F0AD
:1002600007018D46704710B50446AFF30080204665
:10027000BDE81040FFF781BF004870471000002024
:1002800001491820ABBEFEE72600020070470000BF
:10029000FFE7FEE77047000080B5022000F05AF843
:1002A00080BD000080B5042000F054F880BD00003F
:1002B00081B0EFF3108072B60090FFE7FEE7000018
:1002C00080B584B0039000F0FBF902900398019090
:1002D0000198013048B1FFE740F20600C2F2000089
:1002E0000178019808440190FFE7FFE700F0E8F982
:1002F0000299401A0199884201D2FFE7F6E704B05B
:1003000080BD000080B582B0ADF80600BDF80600E3
:1003100002280BD1FFE740F20400C2F200004FF4C4
:10032000FA710180008801F0F5F810E0BDF80600D0
:1003300004280BD1FFE740F20400C2F200004FF4A2
:10034000FA610180008801F0E5F8FFE7FFE702B0FD
:1003500080BD000080B582B0ADF8060040F21440C8
:10036000C4F201000068BDF8061008420CD0FFE797
:10037000BDF8060040F21441C4F201010860BDF866
:100380000600FFF7BFFFFFE702B080BD8FB00E9001
:100390000D9100200C900890FFE70D9800680C99D3
:1003A000C840002800F07181FFE70C9901208840C7
:1003B0000B900D9800680B9908400A900A980B99C9
:1003C000884240F05E81FFE70D9840680490002865
:1003D00051D0FFE7049801283AD0FFE7049802289B
:1003E0003FD0FFE7049803285FD0FFE70498112867
:1003F00032D0FFE70498122838D0FFE70498002194
:10040000C1F21101884236D0FFE704980021C1F201
:10041000120188422FD0FFE704980021C1F2210188
:10042000884228D0FFE704980021C1F222018842C7
:1004300021D0FFE704980021C1F2310188421AD08F
:10044000FFE704980021C1F23201884213D02FE067
:100450000D98C06808902CE00D98C0680430089092
:1004600027E00D98C0680830089022E00D98C06819
:100470000C3008901DE00D98806818B9FFE7042043
:10048000089011E00D988068012806D1FFE7082048
:1004900008900B980E99086105E0082008900B98C9
:1004A0000E994861FFE7FFE703E00020089000E0B5
:1004B000FFE70A98FF2803D8FFE70E98039003E0B0
:1004C0000E9804300390FFE7039807900A98FF28DE
:1004D00004D8FFE70C988000029006E00C996FF0BA
:1004E0001F0000EB81000290FFE70298069007983A
:1004F0000068069A0F21914088430899914008436B
:10050000079908600D98C079C006002840F1B880AE
:10051000FFE7FFE741F21800C4F20200016841F072
:1005200001010160006800F0010005900598FFE7F7
:100530000C9820F003000821C4F2010140580990F2
:100540000C9800F0030081000F2000FA01F10998D7
:10055000884309900E9840F60001C4F201018842D8
:1005600003D1FFE70020019018E00E9840F600410B
:10057000C4F20101884203D1FFE7012000900AE0A4
:100580000E9941F20002C4F201020320914208BF19
:1005900002200090FFE700980190FFE701980C9976
:1005A00001F00301890000FA01F10998084309905C
:1005B00009980C9921F003010822C4F20102885025
:1005C0000D988079C00748B1FFE70A9A40F20041D0
:1005D000C4F2010108681043086008E00A9A40F27A
:1005E0000041C4F20101086890430860FFE70D98DC
:1005F00080798007002809D5FFE70A9A40F2044174
:10060000C4F2010108681043086008E00A9A40F249
:100610000441C4F20101086890430860FFE70D98A7
:100620008079C006002809D5FFE70A9A40F2084100
:10063000C4F2010108681043086008E00A9A40F219
:100640000841C4F20101086890430860FFE70D9873
:1006500080798006002809D5FFE70A9A40F20C410C
:10066000C4F2010108681043086008E00A9A40F2E9
:100670000C41C4F20101086890430860FFE7FFE7FE
:10068000FFE70C9801300C9087E60FB07047000030
:1006900082B00190ADF802108DF801209DF80100A4
:1006A00028B1FFE7BDF802000199086105E0BDF837
:1006B0000200000401990861FFE702B070470000E2
:1006C00040F27400C2F200000068704740F2060079
:1006D000C2F20000027840F27401C2F20001086820
:1006E000104408607047000080B542F20001C4F277
:1006F0000201086840F010000860032000F086F84E
:100700000F2000F005F800F03BF8002080BD00004D
:1007100080B582B0009040F20000C2F20000006894
:1007200040F20601C2F200010A784FF47A71B1FB7F
:10073000F2F1B0FBF1F000F04DFD20B1FFE7012038
:100740008DF8070018E000980F280DD8FFE70099F2
:100750004FF0FF30002200F03FF8009840F208010F
:10076000C2F20001086003E001208DF8070003E0F9
:1007700000208DF80700FFE79DF8070002B080BD5C
:1007800082B0FFE741F21800C4F20200016841F0B4
:1007900001010160006800F0010001900198FFE78D
:1007A000FFE741F21C00C4F20200016841F08051F1
:1007B0000160006800F0805000900098FFE702B0F0
:1007C0007047000080B582B08DF807009DF90700E2
:1007D00000F028FE02B080BD80B586B08DF817000D
:1007E000049103920020029000F034FE02909DF9E3
:1007F0001700019002980499039A00F05BFD0146EE
:10080000019800F02FFE06B080BD000080B582B0D8
:100810000190019800F048FE02B080BD80B584B020
:1008200002900191029820B9FFE701208DF80F0096
:100830001BE1019842F20001C4F20201096801F0D3
:100840000701884216D9FFE742F20000C4F2020015
:10085000016821F00701019A11430160006800F06E
:1008600007000199884204D0FFE701208DF80F00AE
:10087000FBE0FFE702980078800700282AD5FFE711
:10088000029800784007002809D5FFE741F20401EB
:10089000C4F20201086840F4E0600860FFE70298D3
:1008A00000780007002809D5FFE741F20401C4F2EF
:1008B0000201086840F460500860FFE741F204015B
:1008C000C4F20201086820F0F000029A9268104316
:1008D0000860FFE702980078C007002860D0FFE7B3
:1008E0000298406801280ED1FFE741F20000C4F2EF
:1008F000020000688003002804D4FFE701208DF87F
:100900000F00B2E021E00298406802280ED1FFE714
:1009100041F20000C4F2020000688001002804D403
:10092000FFE701208DF80F009FE00DE041F200008D
:10093000C4F2020000688007002804D4FFE7012009
:100940008DF80F0091E0FFE7FFE741F20401C4F2E8
:100950000201086820F00300029A52681043086000
:10096000FFF7AEFE0090FFE741F20400C4F2020080
:10097000006800F00C0002994968B0EB810F0ED0BE
:10098000FFE7FFF79DFE0099401A41F28931884246
:1009900004D3FFE703208DF80F0066E0E4E7FFE7EC
:1009A000019842F20001C4F20201096801F0070156
:1009B000884216D2FFE742F20000C4F2020001684A
:1009C00021F00701019A11430160006800F007005F
:1009D0000199884204D0FFE701208DF80F0044E020
:1009E000FFE702980078400700280CD5FFE741F2A6
:1009F0000401C4F20201086820F4E060029AD2689F
:100A000010430860FFE702980078000700280DD522
:100A1000FFE741F20401C4F20201086820F46050CB
:100A2000029A126940EAC2000860FFE700F022F86B
:100A300041F20401C4F202010968C9B20A0941F293
:100A4000F251C0F60001895CC84040F20001C2F2D8
:100A50000001086040F20800C2F200000068FFF7E1
:100A600057FE00208DF80F00FFE79DF80F0004B03F
:100A700080BD00008BB040F60E70C1F210000A90ED
:100A800040F60A30C0F60C50099040F20670C0F6ED
:100A90000810089040F20230C0F20450079040F273
:100AA0000120ADF81A0000200590049003900290F8
:100AB000019041F20400C4F202000068059005981C
:100AC00000F00C0001460091E0B3FFE70098042815
:100AD00004D0FFE70098082806D034E041F2002057
:100AE000C0F27A00019034E00598C0F3834107A872
:100AF000405C02909DF81600C007C0B1FFE741F2CC
:100B00000400C4F20200006800F400310DF11A0084
:100B100040EA514000780490029841F20021C0F26E
:100B20007A0148430499B0FBF1F0039007E0029882
:100B300040F60011C0F23D0148430390FFE70398DF
:100B4000019006E0FFE741F20020C0F27A00019038
:100B5000FFE701980BB0704780B586B00490049809
:100B600020B9FFE701208DF817002EE304980078E4
:100B7000C007002800F0AE80FFE741F20400C4F295
:100B80000200006800F00C00042813D0FFE741F2D7
:100B90000400C4F20200006800F00C0008281BD119
:100BA000FFE741F20400C4F202000068C00300281D
:100BB00012D5FFE741F20000C4F202000068800392
:100BC000002808D5FFE70498406820B9FFE7012016
:100BD0008DF81700F9E27CE0FFE704984068B0F573
:100BE000803F09D1FFE741F20001C4F20201086829
:100BF00040F48030086032E00498406868B9FFE74C
:100C000041F20001C4F20201086820F4803008605B
:100C1000086820F48020086020E004984068B0F55F
:100C2000A02F0DD1FFE741F20001C4F202010868D4
:100C300040F480200860086840F4803008600CE0D0
:100C400041F20001C4F20201086820F4803008601B
:100C5000086820F480200860FFE7FFE7FFE7FFE770
:100C600004984068D0B1FFE7FFF72AFD0390FFE743
:100C700041F20000C4F202000068800300280CD496
:100C8000FFE7FFF71DFD0399401A652804D3FFE72E
:100C900003208DF8170098E2EAE719E0FFF710FD4E
:100CA0000390FFE741F20000C4F2020000688003F5
:100CB00000280CD5FFE7FFF703FD0399401A6528CC
:100CC00004D3FFE703208DF817007EE2EAE7FFE791
:100CD000FFE7FFE7049800788007002840F18D8047
:100CE000FFE741F20400C4F20200006810F00C0FAC
:100CF00013D0FFE741F20400C4F20200006800F0E4
:100D00000C00082829D1FFE741F20400C4F20200D8
:100D10000068C003002820D4FFE741F20000C4F2BD
:100D2000020000688007002809D5FFE704980069E1
:100D3000012804D0FFE701208DF8170045E241F2B9
:100D40000001C4F20201086820F0F800049A526918
:100D500040EAC2000860FFE74EE00498006958B31B
:100D6000FFE70021C4F2422101200860FFF7A8FC40
:100D70000390FFE741F20000C4F202000068800720
:100D800000280CD4FFE7FFF79BFC0399401A0328C7
:100D900004D3FFE703208DF8170016E2EAE741F2DB
:100DA0000001C4F20201086820F0F800049A5269B8
:100DB00040EAC20008601EE00021C4F24221002087
:100DC0000860FFF77DFC0390FFE741F20000C4F2EA
:100DD00002000068800700280CD5FFE7FFF770FCD1
:100DE0000399401A032804D3FFE703208DF8170066
:100DF000EBE1EAE7FFE7FFE7FFE704980078000789
:100E0000002848D5FFE70498806918B3FFE740F24F
:100E10008041C4F2422101200860FFF751FC039099
:100E2000FFE741F22400C4F20200006880070028B6
:100E30000CD4FFE7FFF744FC0399401A032804D3BE
:100E4000FFE703208DF81700BFE1EAE7012000F07B
:100E500069FA1FE040F28041C4F24221002008609C
:100E6000FFF72EFC0390FFE741F22400C4F20200DA
:100E70000068800700280CD5FFE7FFF721FC0399E5
:100E8000401A032804D3FFE703208DF817009CE1E4
:100E9000EAE7FFE7FFE7049800784007002840F101
:100EA000D880FFE700208DF8070041F21C00C4F253
:100EB00002000068C000002813D4FFE7FFE741F2FA
:100EC0001C00C4F20200016841F08051016000681A
:100ED00000F0805000900098FFE701208DF8070097
:100EE000FFE747F20000C4F200000068C0050028D8
:100EF00022D4FFE747F20001C4F20001086840F481
:100F000080700860FFF7DCFB0390FFE747F200000A
:100F1000C4F200000068C00500280CD4FFE7FFF70A
:100F2000CFFB0399401A652804D3FFE703208DF80F
:100F300017004AE1EAE7FFE7FFE70498C0680128E5
:100F400009D1FFE741F22001C4F20201086840F034
:100F50000100086031E00498C06868B9FFE741F219
:100F60002001C4F20201086820F00100086008684E
:100F700020F0040008601FE00498C06805280DD127
:100F8000FFE741F22001C4F20201086840F00400CA
:100F90000860086840F0010008600CE041F22001A0
:100FA000C4F20201086820F001000860086820F01F
:100FB00004000860FFE7FFE7FFE7FFE70498C06869
:100FC000E0B1FFE7FFF77CFB0390FFE741F2200071
:100FD000C4F202000068800700280ED4FFE7FFF784
:100FE0006FFB0399401A41F28931884204D3FFE72D
:100FF00003208DF81700E8E0E8E71BE0FFF760FB4F
:101000000390FFE741F22000C4F20200006880076D
:1010100000280ED5FFE7FFF753FB0399401A41F272
:101020008931884204D3FFE703208DF81700CCE014
:10103000E8E7FFE79DF80700012809D1FFE741F243
:101040001C01C4F20201086820F080500860FFE72C
:10105000FFE70498C069002800F0B380FFE741F281
:101060000400C4F20200006800F00C00082800F040
:101070008280FFE70498C06902285CD1FFE7602105
:10108000C4F2422100200860FFF71AFB0390FFE73B
:1010900041F20000C4F202000068800100280CD573
:1010A000FFE7FFF70DFB0399401A032804D3FFE77E
:1010B00003208DF8170088E0EAE70498006AB0F58D
:1010C000803F0CD1FFE741F20401C4F2020108683D
:1010D00020F40030049A926810430860FFE741F260
:1010E0000401C4F20201086820F47410049B1A6A17
:1010F0005B6A1A43104308606021C4F24221012058
:101100000860FFF7DDFA0390FFE741F20000C4F248
:1011100002000068800100280CD4FFE7FFF7D0FA36
:101120000399401A032804D3FFE703208DF8170022
:101130004BE0EAE71EE06021C4F242210020086093
:10114000FFF7BEFA0390FFE741F20000C4F202008D
:101150000068800100280CD5FFE7FFF7B1FA03997A
:10116000401A032804D3FFE703208DF817002CE072
:10117000EAE7FFE724E00498C069012804D1FFE70B
:1011800001208DF8170020E041F20400C4F20200B3
:1011900000680290029800F480300499096A88423D
:1011A00008D1FFE7029800F470100499496A884258
:1011B00004D0FFE701208DF8170006E0FFE7FFE706
:1011C000FFE700208DF81700FFE79DF8170006B035
:1011D00080BD000080B582B00190019800F0C2F897
:1011E00002B080BDFFE7FEE780B58EB000200D9015
:1011F0000C900B900A90FFE741F21800C4F2020035
:10120000016841F004010160006800F004000990E9
:101210000998FFE7FFE741F21800C4F202000168F5
:1012200041F008010160006800F00800089008988B
:10123000FFE740F60000C4F2010002900E21019188
:1012400000220692FFF724FA019A029806990A9260
:1012500001220B920C91022104910D910AA9039194
:10126000FFF794F80399069806220A920022C1F229
:1012700011020B920C9040F60040C4F20100FFF7FF
:1012800085F80499069A07200590FFF7A5FA0598B6
:10129000FFF798FA069A082007900321FFF79CFAB7
:1012A0000798FFF78FFA0EB080BD0000FFE7FEE75A
:1012B000FFE7FEE788B0079006910592079800F0D7
:1012C000070004900498C0F10700052803D3FFE746
:1012D0000420019004E00498C0F107000190FFE7AA
:1012E0000198039004980430062803D8FFE70020F3
:1012F000009003E0049803380090FFE70098029004
:1013000006980399012202FA01F101390840029B73
:10131000984005999A40013A1140084308B0704737
:101320007047000082B00190019840F20001C2F2C3
:1013300000010968C90844F6D352C1F26202A1FB58
:101340000221890948430090FFE700BFFFE70098AA
:10135000411E00910028F8D1FFE702B0704700005D
:101360007047000080B582B0009000980138B0F15D
:10137000807F03D3FFE70120019019E00098013836
:101380004EF21401CEF2000108604FF0FF300F2141
:1013900000F068F84EF21801CEF20001002008605B
:1013A0004EF21002CEF20002072111600190FFE719
:1013B000019802B080BD000080B5FFF787F980BDBD
:1013C00080B590B006A800902821FEF7FDFE009899
:1013D000002105910491039102910191022206924C
:1013E00001220A9210220B920D91FFF7B5FB18B162
:1013F000FFE7FEF75DFFFFE70F200190002102915C
:1014000003910491059101A8FFF708FA18B1FFE7CD
:10141000FEF74EFFFFE710B080BD000070470000F0
:10142000FFE7FEE781B08DF803009DF90300002877
:101430000ED4FFE79DF9031001F01F020120904038
:101440004A094EF20011CEF2000141F82200FFE7F6
:1014500001B070474EF60C50CEF200000068C0F3A9
:101460000220704782B08DF8070000919DF90700B7
:1014700000280AD4FFE7009800019DF907104EF2FA
:101480000042CEF2000288540BE0009800019DF863
:10149000071001F00F014EF61452CEF200028854EC
:1014A000FFE702B07047000083B00290029800F09E
:1014B000070000904EF60C51CEF200010868019032
:1014C00001984FF6FF02104001900198009A40EAFF
:1014D00002200022C0F2FA521043019001980860E5
:1014E00003B0704780B582B000200190FFF7FCF890
:1014F000FFF766FFFFF778FEFFE740F20400C2F255
:10150000000000900088FEF7DBFE0098008800F0E5
:1015100001F8F2E780B585B0ADF812000020ADF813
:1015200010000220C0F2010003900220C0F204006B
:1015300002904FF48030019040F27001C2F200013D
:10154000088801300880088844F62512C2F29242C9
:10155000A0FB02C3A0EB030C03EB5C039B08A3EB13
:10156000C303034401A830F8133003F001038DF8DE
:1015700003300B88A3FB02ECA3EB0C0E0CEB5E0C10
:101580004FEA9C0CACEBCC0C634430F81330C3F343
:1015900040038DF802300988A1FB02328B1A02EB5E
:1015A00053029208A2EBC202114430F81100C0F3BA
:1015B00080008DF801009DF803104FF400300029E1
:1015C00018BF02209DF802204FF48021002A18BF86
:1015D000042108449DF801204FF40021002A18BF7F
:1015E0000821084440F61001C4F20101086005B06A
:1015F00080BD000000000000000001020304060797
:101600000809000028160008000000201000000053
:1016100028010008381600081000002068060000A5
:1016200044010008000000000024F400C80001008C
:081630001000000000000000A2
:04000005080000ED02
:00000001FF
