:020000040800F2
:10000000A80600208901000805150008FD14000855
:10001000011500087D030008191500080000000004
:100020000000000000000000000000000D150008A6
:1000300081030008000000000915000811150008E0
:10004000A3010008A3010008A3010008A301000800
:10005000A3010008A3010008A3010008A3010008F0
:10006000A3010008A3010008A3010008A3010008E0
:10007000A3010008A3010008A3010008A3010008D0
:10008000A3010008A3010008A3010008A3010008C0
:10009000A3010008A3010008A3010008A3010008B0
:1000A000A3010008A3010008A3010008A3010008A0
:1000B000A3010008A301000800000000A30100083C
:1000C000A30100080000000000000000A3010008D8
:1000D00000000000A3010008A301000800000000C8
:1000E000A3010008A3010008A301000800F002F822
:1000F00000F03AF80AA090E8000C82448344AAF188
:100100000107DA4501D100F02FF8AFF2090EBAE885
:100110000F0013F0010F18BFFB1A43F0010318473B
:10012000F815000018160000103A24BF78C878C1EE
:10013000FAD8520724BF30C830C144BF04680C60ED
:10014000704700000023002400250026103A28BF35
:1001500078C1FBD8520728BF30C148BF0B60704739
:100160001FB51FBD10B510BD00F058F81146FFF7C0
:10017000F7FF01F0D3F900F076F803B4FFF7F2FFD0
:1001800003BC00F07DF8000009488047094800479B
:10019000FEE7FEE7FEE7FEE7FEE7FEE7FEE7FEE737
:1001A000FEE7FEE704480549054A064B7047000094
:1001B00015150008ED000008A8000020A806002082
:1001C000A8020020A80200204FF0000200B513464C
:1001D00094469646203922BFA0E80C50A0E80C5067
:1001E000B1F12001BFF4F7AF090728BFA0E80C5018
:1001F00048BF0CC05DF804EB890028BF40F8042B11
:1002000008BF704748BF20F8022B11F0804F18BF7D
:1002100000F8012B7047704770477047754600F033
:100220002BF8AE4605006946534620F00700854688
:1002300018B020B5FFF7B6FFBDE820404FF000062C
:100240004FF000074FF000084FF0000BAC46ACE851
:10025000C009ACE8C009ACE8C009ACE8C00921F0AD
:1002600007018D46704710B50446AFF30080204665
:10027000BDE81040FFF781BF004870471000002024
:1002800001491820ABBEFEE72600020070470000BF
:10029000B0B5044600688168C90709D0816821F0BB
:1002A0000101816000F0E6FC21688968C90701D17D
:1002B0000020B0BD054603E020688068C007F7D085
:1002C00000F0D8FC401B0328F6D320688068C007E4
:1002D000F2D0A06A40F01000A062E06A40F0010095
:1002E000E0620120B0BD0000B0B582B0044600203D
:1002F000019021688A68D2073DD1886840F00100EA
:10030000886040F20000C2F2000000684DF6836190
:10031000C4F21B31A0FB0101880C00BF01900198C1
:1003200010B101980138F9E700F0A4FC2168896850
:10033000C9071CD1054603E020688068C00719D1B1
:1003400000F098FC401B0328F6D320688068C007A3
:10035000F2D1A06A40F01000A062E06A40F0010013
:10036000E062002084F82400012002B0B0BD00202B
:1003700002B0B0BD002002B0B0BD0000FEE700003A
:100380007047000070B582B004460020019094F8D8
:100390002400012801D1022566E0012084F8240010
:1003A0002046FFF775FF054600285AD1A06A41F2A2
:1003B000021188430230A06240F20000C2F2000045
:1003C0000668022000F0FCFCB6FBF0F0400000BF25
:1003D0000190019810B101980138F9E72046FFF724
:1003E00083FF2068816841F00801816000F042FCD1
:1003F00021688A6812070DD4886840F0040088607C
:1004000000F038FC21688968490713D401206FF097
:10041000030122E0064603E0216888680007EBD567
:1004200000F028FC801B0B28F6D3206880680007AA
:10043000F2D50EE0064603E0206880684007E5D567
:1004400000F018FC801B0B28F6D32068806840075A
:10045000F2D5012510206FF01201A26A1140084365
:10046000A062002084F82400284602B070BD00007D
:10047000B0B581B00022009290F82420012A01D169
:10048000022179E04A680123062A02EB820C80F8F7
:10049000243005D8026802F1340E6FF004020AE03D
:1004A00003680C2A87BF03F12C0E6FF0400203F1A2
:1004B000300E6FF022026244DEF800C01F230C6889
:1004C00093402CEA030304FA02F21A43CEF8002008
:1004D000D1F800E002680EEB4E041023BEF1090FC4
:1004E00088BF1E3C88BF0C2352F803C007258968CB
:1004F000A5402CEA0505A1402943D1502EF0010169
:100500004FF0000C10294FF0000133D1016842F286
:100510000042C4F20102914205D0816A41F02001FB
:100520008162012126E09268120222D48A68BEF11B
:10053000100F42F400028A601BD140F20001C2F2A7
:10054000000109684DF68362C4F21B32A1FB02125E
:10055000910C01EB810149000091009949B100BF64
:10056000009901390091009900294FF00001F7D15D
:1005700000E0002180F824C0084601B0B0BD0000B2
:100580000068C06C70470000B0B5002846D0044633
:10059000806A30B90020E06284F82400204600F030
:1005A000A1F820688168C90709D0816821F001019C
:1005B000816000F05FFB21688968C90730D10020A5
:1005C0000121A36AA26A31B313F0100123D141F2D1
:1005D000021122EA01010231A162E169D4E901328A
:1005E00041EA030C531EB3FA83F35D091346B2F5D7
:1005F000807F18BF2B02217D257B01294CEA450E07
:1006000031D13DB3A56A45F02005A562E56A45F004
:100610000105E56227E042F01000A0620120B0BDB4
:10062000054603E020688068C007C8D000F022FBC0
:10063000401B0328F6D320688068C007F2D0A06A68
:10064000002140F01000A062E06A40F00100E0628A
:100650000120B6E7D4F818C04EF60005CFF6FF75B6
:1006600005EB4C352B432568B2F5807F696821F492
:10067000694141EA03016960A9684FF2FD73CFF651
:10068000E17301EA030141EA0E01A96001D0012AE8
:1006900006D121690022CFF6F07202EB015200E090
:1006A0000022E96A21F470011143E962A96840F669
:1006B000FE62CFF61F721140714507D10021E16241
:1006C000A16A012262F30101A162B0BDA06A40F0FB
:1006D000100020F00200A062E06A40F00100E06239
:1006E0000120B0BD80B586B0014640F60000C4F2DE
:1006F0000100096800F5E05291424FF00001CDE998
:100700000411CDE9021101D006B080BD41F21801FB
:10071000C4F202010A6842F400720A600A6802F434
:1007200000720192019A0A6842F004020A600968A4
:1007300001F0040101910199022102910321039129
:1007400002A900F095F906B080BD00002DE9F04146
:1007500082B000260D460446019600F08BFA21680F
:100760008A68D2053CD480464868C00503D4C86A6C
:1007700010F4700F3ED040F20000C2F20000066894
:10078000022000F01DFB216844F624130A69B6FB21
:10079000F0F0C2F292431A4206D1CA6844F624131A
:1007A000C0F292031A423ED00A6942F29243C1F269
:1007B00049231A4206D1CA6842F29243C0F2490361
:1007C0001A4242D00A6949F24923C0F224031A426C
:1007D0004FF0FC023AD1C968194208BF542235E0F3
:1007E000A06A40F02000A06284F82460012002B0DA
:1007F000BDE8F08120680068800743D46E1C07E0E4
:100800002068006880075CD520680068800739D4BC
:10081000002EF9D0002DF3D000F02CFAA0EB080048
:10082000A842EDD8F0E70A6942F29243C1F24923A7
:100830001A424FF0290209D1C96842F29243C0F22C
:100840004903194208BF142200E05422019902FB17
:1008500000F7B94216D26E1C09E000BF0198B842F9
:100860002FD30198013001900198B8420AD2002E8E
:10087000F7D0002DF2D000F0FDF9A0EB0800A8425F
:10088000ECD8EEE720686FF012010160A16A41F434
:100890000071A162806800F46020B0F5602F0CD177
:1008A000207B50B9A06A20F48070A062A06AC004C6
:1008B00003D4A06A40F00100A062002002B0BDE8AD
:1008C000F081A06A40F00400A062002084F82400B7
:1008D000032002B0BDE8F081B0B5044690F82400D2
:1008E000012804BF0220B0BD012084F82400204666
:1008F000FFF7FAFC18B1002184F82410B0BD42F2D1
:10090000044C2168A26AC4F2010C40F201339A43FC
:100910000CF57F7502F58072A942A26207D0A26A27
:1009200022F48012A2624A6852051AD41EE0DCF852
:10093000002012F4702FF2D0A26A42F4801E42F618
:100940000002C4F201029142C4F828E005D042F24C
:100950000042C4F20102914208D1DCF800205205A5
:1009600004D5A26A012363F30D32A262A26A4FF09A
:10097000000ED2044FF0000244BFE26A22F00602E9
:10098000E2626FF0020284F824E00A608A6802F4EE
:100990006022B2F5602F0BD1A94204D08A6842F4DC
:1009A000A0028A60B0BDDCF8002012F4702FF5D0F0
:1009B0008A6842F480128A60B0BD0000B0B5044677
:1009C00090F82400012804BF0220B0BD0121206856
:1009D00084F824108268D20702D1002099B10CE07B
:1009E000816821F00101816000F044F92168896883
:1009F000C9070CD10020012129B1A16A41F20112DD
:100A000091430131A162002184F82410B0BD054654
:100A100004E000BF20688068C007EBD000F02AF92E
:100A2000401B0328F6D320688068C007F2D0A06A74
:100A3000002140F01000A062E06A40F00100E06296
:100A400001200029DFD0D8E7B0B5044600F012F944
:100A5000054640F20400C2F200000078611C18BF95
:100A6000044400BF00F006F9401BA042FAD3B0BD19
:100A70002DE9F04F82B00E68002E00F0F18040F2B8
:100A80000C4C40F2004E41F20002C4F2010CC4F2E0
:100A9000010EC4F201020327002401234FF0000BD2
:100AA0004FF00009904208BF0227009748E040F647
:100AB0000042C4F20102009F904208BF012704F0E7
:100AC0000C030F229A402AEA020207FA03F34FEAC4
:100AD0009B051A4346F825204E68F203DEF80020F5
:100AE00054BF22EA080242EA0802CEF80020DEF8EB
:100AF0000420B30354BF22EA080242EA0802CEF8F7
:100B00000420F302DEF8082054BF22EA080242EA79
:100B10000802B302CEF80820DCF800204FF00103F1
:100B200054BF22EA080242EA0802CCF800200E680C
:100B30000BF1010B36FA0BF204F1040400F0908083
:100B400003FA0BFA16EA0A08F1D04E684FF6FF7264
:100B5000C1F21002964211DC122E51D8DFE806F0E5
:100B6000340A4246505050505050505050505050FF
:100B700050494D00D1F80C9042E000BF4FF6FF7293
:100B8000C1F2210296420FDC0022C1F2110296420C
:100B90001AD00022C1F21202964215D00022C1F2F0
:100BA0002102964210D02BE00022C1F2220296428E
:100BB0000AD00022C1F23102964205D00022C1F2D1
:100BC000320296421CD100BF8A6842B1012A14BF8A
:100BD000C0F814A0C0F810A04FF0080910E04FF0C2
:100BE00004090DE0CA6802F1080909E04FF00009A4
:100BF00006E0CA6802F1040902E0CA6802F10C09C1
:100C000022460646B8F5807F24BF203A043637686E
:100C10000F25954027EA050509FA02F22A433260BA
:100C2000CA79D2067FF583AF41F21803C4F20203FA
:100C30001A68AEF57E7642F001021A601A6802F078
:100C400001020192019A2BF0030256F802A040F62D
:100C50000002C4F2010290427FF429AF00272EE780
:100C600002B0BDE8F08F0000002A08BF090401614E
:100C70007047000040F2A000C2F200000068704718
:100C800040F2040040F2A001C2F20000C2F20001F2
:100C900000780A68104408607047000080B542F28E
:100CA0000000C4F20200016841F01001016003205D
:100CB00000F076F80F2000F005F800F02BF8002087
:100CC00080BD0000B0B540F20402C2F2000240F262
:100CD00000011278C2F200014FF47A730968B3FB85
:100CE000F2F20446B1FBF2F1084600F0F1FB0F2CE2
:100CF0004FF001050CD858B94FF0FF3021460022C3
:100D0000002500F021F840F20800C2F20000046063
:100D10002846B0BD82B041F21800C4F2020001685A
:100D200041F001010160016801F0010101910199A7
:100D3000416841F080514160406800F0805000906F
:100D4000009802B07047000010B54EF60C5CCEF271
:100D5000000CDCF80030C3F3022E8EF00704042CE4
:100D600028BF0424BEF103034FF0FF3E0EFA04F443
:100D700038BF0023A14399400EFA03F39A4311436D
:100D800000F1604200F00F03090102F56442043BE8
:100D90006344002848BF03F10C02117010BD00002D
:100DA0004EF60C51CEF200010A684FF6FF031A40CE
:100DB00060F30A2242F0806040F0FD7008607047E6
:100DC00080B5012818D0022841D010283DD141F229
:100DD0000401C4F202010A6851F8040CC00134D5C0
:100DE000C2F383402EA3185CD2033FD440F6001216
:100DF000C0F23D02504345E041F20400C4F202005B
:100E0000C16940F202320A40B2F5817F04BF4FF45B
:100E1000004080BD01F44071B1F5407F0DD0B1F5C7
:100E2000007F12D1026A920744BF49F6404080BD5C
:100E3000B1F5407F1CBF002080BD50F8040C4FF27C
:100E40002441800301EAE07080BD002080BD00F0F5
:100E500093F941F20401C4F2020109680222C1F3CC
:100E6000813102EB4101B0FBF1F080BD0A6810A3B3
:100E7000C2F340429A5C41F20023C0F27A03B3FB12
:100E8000F2F250430968490248BF80BD4AF6AB21DF
:100E90004000CAF6AA21A0FB0101480880BD00BF9E
:100EA00002030405060708090A0B0C0D0E0F1010AB
:100EB000010200002DE9F04182B00446007841F2C1
:100EC0001C06C007C4F202064AD0306810F08058F1
:100ED00008D1306840F080503060306800F08050B9
:100EE0000190019847F20007C4F200073868C00576
:100EF00012D4386840F480703860FFF7BBFE0546B6
:100F00003868C00508D4FFF7B5FE401B6428F7D940
:100F1000032002B0BDE8F081706810F4407012D078
:100F2000616801F4407188420DD0706840F240421F
:100F3000C4F24222012320F4407113600023C00751
:100F40001360716029D17068616820F440700843B3
:100F5000B8F1000F706003D1306820F0805030602D
:100F60002068810707D556F8181CA26821F4404173
:100F7000114346F8181CC00603D4002002B0BDE897
:100F8000F08156F8180CE16820F48000084346F818
:100F9000180C002002B0BDE8F081FFF76BFE05469B
:100FA00041F2883770688007CDD4FFF763FE401B9D
:100FB000B8424FF00300F5D9ECE700002DE9F0430B
:100FC00081B0002800F0858042F20008C4F20208D7
:100FD0000446D8F800000D4600F0070088420CD205
:100FE000D8F8000020F007002843C8F80000D8F81F
:100FF000000000F00700A8426BD1206841F204090C
:101000008107C4F2020917D5410705D5D9F80010A8
:1010100041F4E061C9F80010010705D5D9F80010C6
:1010200041F46051C9F80010D9F80010A26821F00D
:10103000F0011143C9F80010C00741D1D8F80000F1
:1010400000F00700A8420CD9D8F8000020F00700F3
:101050002843C8F80000D8F8000000F00700A842B4
:1010600037D12068410707D5D9F80010E26821F48C
:10107000E0611143C9F80010000708D5D9F8000055
:10108000216920F4605040EAC100C9F80000D9F895
:10109000002002F00C00082841F20020C0F27A0083
:1010A0004ED141F20873C2F38341C0F60003595C8C
:1010B000D20339D440F60010C0F23D0048433FE06F
:1010C0006068022809D0012829D159F8041C890335
:1010D00007D4012001B0BDE8F08359F8041C890150
:1010E000F7D5D9F8001021F003010843C9F8000032
:1010F000FFF7C0FD064641F2883700BFD9F800006F
:10110000616800F00C00B0EB810F97D0FFF7B2FDE3
:10111000801BB842F2D9032001B0BDE8F08359F832
:10112000041C8907D5D5DCE7D9F8002041F2EE632D
:10113000C2F34042C0F600039A5C4843B0FBF2F0B1
:10114000D9F8001041F2F062C1F30311C0F60002B9
:10115000515C40F2000220FA01F140F20800C2F2B4
:1011600000000068C2F200021160FFF7ABFD002032
:1011700001B0BDE8F083000040F2000041F204013C
:10118000C2F20000C4F202010068096841F2007274
:10119000C1F3C221C0F60002515CC8407047000094
:1011A0002DE9F04182B0002800F0D7800446007895
:1011B00041F20006C007C4F2020644D0706800F095
:1011C0000C00042817D0706800F00C00082802D129
:1011D0007068C0030FD465682DB1B5F5A02F10D08D
:1011E000B5F5803F11D0306820F480303060306831
:1011F00020F480200CE03068800324D5606810BBA8
:10120000ABE0306840F480203060306840F48030DB
:101210003060FFF72FFD002D054611D030688003A8
:1012200011D4FFF727FD401B6428F7D916E100BF52
:10123000FFF720FD401B64284FF0030000F28A8076
:1012400030688003F4D42078800718D5706810F0D7
:101250000C0F07D0706800F00C00082827D17068C8
:10126000C00324D43068800702D52069012874D1D6
:101270003068616920F0F80040EAC10030602078F1
:1012800000074FD5A06940B30020C4F242200121DD
:10129000C0F88014FFF7EEFC054600BF706A8007B7
:1012A0002DD4FFF7E7FC401B0228F7D9D6E02069D0
:1012B000002840F20000C4F2422000F0A680012184
:1012C0000160FFF7D7FC054630688007D0D4FFF7F0
:1012D000D1FC401B0228F7D9C0E00020C4F2422014
:1012E0000021C0F88014FFF7C5FC0546706A80072E
:1012F00018D5FFF7BFFC401B0228F7D9AEE040F23B
:101300000000C2F20000006844F6D351C1F262014D
:10131000A0FB0101480A019000BF0198411E00286E
:101320000191F9D1207840071BD4E5698DB170682F
:1013300000F00C00082846D1012D0ED07068216AFB
:1013400000F480328A4208D1616A00F47010884249
:1013500003D1002002B0BDE8F081012002B0BDE859
:10136000F081F06910F0805808D1F06940F08050A9
:10137000F061F06900F080500090009847F200079B
:10138000C4F200073868C0050FD4386840F4807094
:101390003860FFF76FFC05463868C00505D4FFF7D5
:1013A00069FC401B6428F7D958E0E5681DB1052D9C
:1013B0003CD0012D3ED0306A20F001003062306A0E
:1013C00020F0040039E00027C4F2422700203866EC
:1013D000FFF750FC022D05460CD100BF306880019C
:1013E00054D5FFF747FC401B02284FF00300F5D906
:1013F000B0E700BF30688001ABD5FFF73BFC401B76
:1014000002284FF00300F5D9A4E700210160FFF79F
:1014100031FC0546306880077FF531AFFFF72AFCC5
:10142000401B02284FF00300F4D993E7306A40F0E4
:1014300004003062306A40F001003062FFF71AFCAD
:10144000002D054641F2883714D000BF306A80076E
:1014500013D4FFF70FFC401BB842F7D9032002B0AA
:10146000BDE8F081FFF706FC401BB8424FF00300D7
:101470003FF670AF306A8007F4D4B8F1000F7FF404
:1014800054AFF06920F08050F0614EE7206AB0F56B
:10149000803F05D17168A26821F400311143716069
:1014A0007168626A21F4741111430843706001206D
:1014B0003866FFF7DFFB0446306880013FF549AF2F
:1014C000FFF7D8FB001B02284FF00300F4D941E7D7
:1014D000411E0020B0EB116F1CBF012070474EF27F
:1014E0001002CEF2000251604EF62351CEF20001FE
:1014F000F0230B700721906011607047FEE7000039
:10150000FEE70000FEE700007047000070470000A3
:10151000FFF7B6BB70470000FEE7000094B0FFF78E
:10152000BDFB0AAC20462821FEF74EFE02200A90A1
:1015300001200E90102000250F9020460995CDE93E
:101540000755CDE90555CDE90355CDE9015511956F
:10155000FFF726FE18B1EFF3108072B6FEE70F20FA
:10156000CDE9050505A80021CDE907550995FFF747
:1015700025FD20B1EFF3108072B600BFFEE7022513
:10158000002401A801950394FFF794FC18B1EFF330
:10159000108072B6FEE741F21800CDE90C44CDE9A7
:1015A0000A44C4F20200016840F6000841F020013C
:1015B00001600168C4F2010801F02001059105995C
:1015C0000168002241F0040101600068382100F048
:1015D00004000590059840463826FFF745FB0A961B
:1015E00001260AA94046CDE90B640D95FFF740FAA4
:1015F00040F2700008F5E051C2F200004FF46022A2
:101600000C94CDE90A4404730475C261C0E9001466
:1016100084600661FEF7B8FF18B1EFF3108072B670
:10162000FEE700200C9040F27000C2F200000AA910
:10163000CDE90A66FEF71CFF18B1EFF3108072B611
:10164000FEE740F27005C2F200052846FEF79AFE5A
:10165000002640F6B11742F293494FF6FD742DE093
:101660004FF4FA70FFF7F0F90136B0B200FB09F061
:10167000A6EB104189B2490801EB10408008A0EBAD
:10168000C000304400F0030281B2012A4FF400226E
:10169000A0F1020008BF082220424FF0100018BF3E
:1016A0004FF4801003294FF4001108BF2021084493
:1016B0001044C8F810002846FFF780F92846FFF7C5
:1016C0000BF928466421FFF741F80028F3D128469A
:1016D000FEF756FFB842C3D8B0F59B6F02D94FF45E
:1016E000FA60BFE70028E6D04FF47A60BAE701025B
:1016F00000000000000000000102030406070809C2
:1017000000000000010203040203040506070809A3
:101710000A0B0C0D0E0F10103817000800000020E7
:1017200010000000280100084817000810000020E1
:1017300098060000440100080024F40001000000A5
:08174000100000000000000091
:04000005080000ED02
:00000001FF
