:020000040800F2
:1000000010080020A1010008F1370008E9370008B6
:10001000ED370008450C00084139000800000000D9
:10002000000000000000000000000000F937000898
:10003000550C000800000000F5370008FD370008E7
:10004000BB010008BB010008BB010008BB010008A0
:10005000BB010008BB010008BB010008BB01000890
:10006000BB010008BB010008BB010008490C0008E7
:10007000BB010008BB010008BB010008BB01000870
:10008000BB010008BB010008BB010008BB01000860
:10009000BB010008BB010008BB010008BB01000850
:1000A000BB01000811380008BB0100080538000832
:1000B000BB0100081D380008BB010008BB01000897
:1000C000BB010008BB010008BB010008BB01000820
:1000D000BB01000835390008BB010008BB0100085E
:1000E000BB010008BB010008BB01000800F002F8DA
:1000F00000F047F80AA090E8000C82448344AAF17B
:100100000107DA4501D100F03CF8AFF2090EBAE878
:100110000F0013F0010F18BFFB1A43F0010318473B
:100120000C4B00002C4B0000103A24BF78C878C15B
:10013000FAD8520724BF30C830C144BF04680C60ED
:10014000704700000023002400250026103A28BF35
:1001500078C1FBD8520728BF30C148BF0B60704739
:10016000662904F0F884002070471FB500F05EFB9C
:1001700004000020002104F09BF9E0601FBD10B5D1
:1001800010BD00F053FC1146FFF7EFFF03F0DAFB60
:1001900000F071FC03B4FFF7F2FF03BC00F0B4FC05
:1001A0000948804709480047FEE7FEE7FEE7FEE70B
:1001B000FEE7FEE7FEE7FEE7FEE7FEE70448054947
:1001C000054A064B7047000001380008ED000008A2
:1001D000100200201008002010040020100400204D
:1001E0000FB41CB5074B06AA7B44694600900598DE
:1001F00000F003FB0020694600F012FB1CBC5DF818
:1002000014FB0000350600002DE9F05F8946044626
:100210004FF0000ADFF824B1FB44C0F820A02046CC
:10022000E168884700287DD0252806D0D4E901213F
:100230009047206A401C2062F1E700255F46204677
:10024000E16888472028064607DB312E05D2B81919
:1002500010F8200C08B10543F1E7A80701D525F0F7
:100260000405C4F81CA00027C4F818A02A2E09D041
:10027000304604F015F938B304EB8708303EC8F86F
:10028000186019E059F8041B204604EB87029161BD
:10029000E1688847012F064618D1E069002820DA76
:1002A00025F020051DE0D8F8180000EB800006EBD3
:1002B00040003038C8F818002046E16888470646F4
:1002C00004F0EEF80028EED1012F0AD02E2E08D12E
:1002D0002046E16888477F1C0646022F45F020052E
:1002E000C4DBA069002803DA404245F00105A061A3
:1002F000E80701D025F01005A6B1A6F141001928A4
:1003000002D8203645F400654A463146204625602D
:100310004D46FFF725FF60B1012807D0ED1D25F000
:10032000070000E007E000F1080978E705F104099B
:1003300075E730467AE7206ABDE8F09F3E49000045
:1003400010B5431C02E010F8011B71B18107FAD10E
:100350004FF0013202C88C1A8C4314EAC211F9D052
:10036000C01A0A0603D0C01E10BDC01A10BD0A0470
:1003700001D0801E10BD0902FCD0401E10BD4FF000
:10038000000200B5134694469646203922BFA0E8E5
:100390000C50A0E80C50B1F12001BFF4F7AF0907F1
:1003A00028BFA0E80C5048BF0CC05DF804EB8900E2
:1003B00028BF40F8042B08BF704748BF20F8022B25
:1003C00011F0804F18BF00F8012B7047704770473D
:1003D00070472DE9FF4F0C461E464FF0FF378BB09C
:1003E000D2E90001DDF860800A908A46C1F30A551F
:1003F00005B93D46002108464FF00000BAF1000F54
:1004000000F4400005DA00EB80004FF4400101EAFF
:1004100050004FEA9059B9F1010F00DDB9460A9832
:1004200050EA4A000ED044F61050A5F2FF3545437D
:100430002F14B8F1000F1ED07542291E1EDDC9F120
:1004400000021CE0B8F1010F4FF0000001D0302194
:1004500003E0F24305E02154401CB042FBDB304690
:100460000022002121540B99C1F80880C1E9002025
:100470000FB0BDE8F08FBD1B6D1CDEE74A4600DA09
:10048000694206A800F05CFA06AB93E8070003ABEC
:1004900083E8070050460A9903F025FC8DE8070021
:1004A000A0F500501F3800900398002D0ADD42F29D
:1004B0001F014A460844002303A90390684603F03D
:1004C0008FFE09E0A0F500504A461F38002303A91B
:1004D0000390684603F099FE8DE807000004000CC5
:1004E00003D04FF0FF30410800E01046B8F1000F94
:1004F00003D00022009215461EE0751E05D400F0C0
:1005000099F9303262556D1EF9D5B3460122084380
:1005100002D000227F1C04E02078302801D1002284
:100520007F1E002A099784D01DE0112D07DA00F004
:1005300081F9303262556D1C50EA0102F5D1084351
:1005400002D00098C8B10EE00021681E05E0235CCF
:10055000625C63542254401E491C8142F7DBAB4667
:10056000A81B401E0990002004F80B000B98099A64
:10057000C0F80880C0E9002B7AE711264FF0000888
:1005800057E72DE9F04F88460446D21D22F00701B7
:1005900091B0D1E90001CDE90A0103F06DFF0246F7
:1005A0000B98C00F01D02D2007E02068810701D5EE
:1005B0002B2002E0202101EAC000032A099001D08B
:1005C000072A05DB03464146204600F079F90BE196
:1005D0002078800601D5E06900E00620B8F1650FBB
:1005E000814606D0B8F1660F18D0B8F1670F70D108
:1005F00031E00020B9F1110F009001DB112301E07F
:1006000009F101030AAA01A90CA8FFF7E2FEDDE93E
:100610000C70002609F10105834647E001204B4696
:1006200000904FF000470AAA01A90CA8FFF7D1FEDD
:10063000DDE90DB00C995D46002610B909F1010005
:100640000D18B9EB050003D4C0F1FF3609F101051F
:10065000A5EB09002BE0B9F1010F01DA4FF0010918
:100660000020B9F1110F0090484601DD112300E090
:1006700003460AAA01A90CA8FFF7ABFEDDE90C703E
:100680004D4600268346207800070AD4AB4500DAA1
:100690005D4601A8012D04DD411911F8011C302926
:1006A00007D04F4502DA17F1040F04DA0120824621
:1006B0000FE06D1EEEE7002F02DCED1B3E4403E071
:1006C000781CA84200DD7D1CB81B00F1010A4FF028
:1006D00000472078000703D4AA4501DB4FF0FF3A1A
:1006E0000021B7F1004F0DF143088DF8431024D0DD
:1006F00002202B23002F01DA7F422D230A21021E24
:10070000A0F1010000DC5FB197FBF1FC97FBF1F277
:1007100001FB1C7C17460CF1300C08F801CDEEE70C
:10072000A8F1010003702188090501D5452100E0E9
:100730006521A0F1010800F8011C09980FA9A1EB9F
:100740000807FF1D00B10120411901EBEA70A16902
:100750003844081A401EA0612078C00602D4204602
:10076000AFF30080099828B1D4E901219047206AAD
:10077000401C20622078C00622D52046AFF30080BE
:100780001EE0002E04DBB34502DD01A8805D00E021
:100790003020D4E901219047206A401C2062761C59
:1007A000AAF101005FEA000A0AD100F03FF8C06830
:1007B0000168405CD4E901219047206A401C206216
:1007C000281EA5F10105DCDC07E0D4E9012118F8B9
:1007D000010B9047206A401C2062381EA7F10107D8
:1007E000F3DC2046AFF30080032011B041E60000A7
:1007F00001694A1C02610878704700B58FB0CDE9E5
:1008000001310021059105497944CDE903101146D4
:100810006846FFF7F9FC0FB000BD0000E5FFFFFFE1
:100820000A6802F8010B0A60704700000048704730
:100830005000002030B5B0F10A0271F100034FEA18
:10084000900E4EEA817EB0EB0E0061EB91014FEA13
:10085000101E4EEA017E10EB0E0041EB11114FEA23
:10086000102E4EEA016E10EB0E0041EB11214FEA03
:10087000104E4EEA014E10EB0E0041EB11414018B4
:1008800041F100014FEAD00040EA41704FEAD10146
:100890004FEA810444EA907410EB800544EB0104B4
:1008A0006D1944EB0404521BA3414FF0000348BFF1
:1008B0000A3200D530BD401C41F1000130BD0000BE
:1008C0002DE9F0411F46044603260168072A01F47A
:1008D000006004DB08B116A505E016A503E008B129
:1008E00015A500E015A521F010002060A069C01E2C
:1008F000A0610FB1401EA0612046AFF300804FB150
:10090000D4E9012138469047206A401C2062C01C6F
:10091000206206E0206AFAE7D4E9012115F8010B0C
:100920009047761EF8D22046AFF30080BDE8F081F4
:100930004E414E006E616E00494E4600696E660083
:100940002DE9F047814616468AB0354878440DC8EF
:100950008DE80D0032487844801C03AC0DC884E853
:100960000D0041F69B300844372190FBF1F290FBDB
:10097000F1F5A5F1800501FB12041B3C02D5644290
:10098000012000E00020DFF898A080460027FA440C
:10099000AAF1BE0A0EE0E0070AD03246684607EB2D
:1009A000470101230AEB810103F02FFC8DE80700CA
:1009B00064107F1C002CEED1194F7F44AE3F19E02C
:1009C000E80715D007EB04100DF1180A90E80E00A7
:1009D0008AE80E00C068F04201D1981908903246AA
:1009E000012306A903A803F010FC03AB83E807006A
:1009F0006D10641C002DE3D14FF0010332466946AF
:100A0000B8F1000F03A802D003F0EAFB01E003F005
:100A1000FCFBC9E90001C9F808200AB0BDE8F0876D
:100A20009842000000487047300000207546FFF7EC
:100A3000F9FFAE4605006946534620F0070085469B
:100A400018B020B5FFF7BAFBBDE820404FF0000614
:100A50004FF000074FF000084FF0000BAC46ACE839
:100A6000C009ACE8C009ACE8C009ACE8C00921F095
:100A700007018D46704710B50446AFF3008020464D
:100A8000BDE81040FFF786BB4FF0013C50F8042B47
:100A900051F8043B9A4221D1A2EB0C03934313EA91
:100AA000CC1317D150F8042B51F8043B9A4215D1BE
:100AB000A2EB0C03934313EACC130BD150F8042B95
:100AC00051F8043B9A4209D1A2EB0C03934313EA79
:100AD000CC13DBD04FF00000704700BFD01A01BA32
:100AE000B1FA81F101F0180122FA01F0CB40DBB23A
:100AF000C0B2C01AC1F120012CFA01F3D11A9143FE
:100B000011EAC311E6D1704701491820ABBEFEE7D8
:100B100026000200704700000146406A826A12F017
:100B2000500F03D0006A026B084610470168826AC2
:100B300042F400728262896801F46021B1F5602F8D
:100B400001D1017B11B100F053B900BF816A21F4DA
:100B500080718162816AC90448BF00F049B9816A25
:100B600041F00101816200F043B90000406A816AEE
:100B700041F040018162C16A41F00401C16200F0AC
:100B800045B90000406A00F03FB90000B0B582B03E
:100B900004460020019021688A68D2074FD18868F6
:100BA00040F00100886040F20800C2F200000068D6
:100BB0004DF68361C4F21B31A0FB0101880C01904A
:100BC0000198A0B1019801380190019878B101987D
:100BD00001380190019850B10198013801900198B5
:100BE00028B101980138019001980028EAD100F05D
:100BF00097FD21688968C9071CD1054603E000BF3D
:100C00008068C0071AD100F08BFD411B20680329C2
:100C1000F6D38168C907F3D1A06A40F01000A06242
:100C2000E06A40F00100E062002084F82400012026
:100C300002B0B0BD002002B0B0BD00BF002002B0C5
:100C4000B0BD0000FEE7000040F2EC00C2F2000080
:100C500000F0E8BA70470000EFF3108072B600BFF2
:100C6000FEE7000010B581B00022009290F8242029
:100C7000012A03D10221084601B010BD4B680122B0
:100C8000062B80F8242017D8D0F800C003EB83038C
:100C90005A1F1F23DCF834E003FA02F40B682EEA33
:100CA000040403FA02F22243CCF83420092B03EBAC
:100CB000430219D936E000BFD0F800C00C2B03EB7B
:100CC00083021DD8233A1F23DCF830E003FA02F434
:100CD0000B682EEA040403FA02F22243CCF8302017
:100CE000092B03EB43021DD8DCF810300724896878
:100CF0009440A34391401943CCF81010002130E0F8
:100D0000413A1F23DCF82CE003FA02F40B682EEAC8
:100D1000040403FA02F22243CCF82C20092B03EB43
:100D20004302E1D9DCF80CE01E3A072489689440BC
:100D30002EEA0404914023F001022143102ACCF84A
:100D40000C100DD142F20841C4F20101A1F10802D8
:100D500094450DD0816A41F020018162012100E0BB
:100D60000021002280F82420084601B010BD00BFF9
:100D70000A68120230D40A68102B42F400020A609A
:100D80002CD140F20801C2F2000109684DF68362DD
:100D9000C4F21B32A1FB0212910C01EB810149004C
:100DA00000910099E1B10099013900910099C9B110
:100DB0000099013900910099B1B100990139009170
:100DC000009999B1009901390091009900294FF0DB
:100DD0000001E8D1C5E700BF0021C2E70021C0E75C
:100DE0000021BEE70021BCE70021BAE70021B8E7F7
:100DF00040F29001C2F2000101F12C02904218BFB2
:100E0000704748688860704770470000704700006E
:100E1000B0B5002800F0A8800446806A20B121689F
:100E20008868C0070BD114E00020E06284F8240039
:100E3000204600F09BF821688868C00709D08868C0
:100E400020F00100886000F06BFC21688A68D207FE
:100E500026D1A06AC0063AD4A06A41F20212904399
:100E60000230A062E069D4E9013240EA030C531E6B
:100E7000B3FA83F35D091346B2F5807F18BF2B02E6
:100E8000207D257B01284CEA450030D135B3A56A89
:100E900045F02005A562E56A45F00105E56226E01A
:100EA000054602E08868C007D3D000F039FC401B3B
:100EB00021680328F6D38868C007F3D0A06A40F001
:100EC0001000A062E06A40F00100E062A06AA06A3F
:100ED00040F01000A0620120B0BD00BFD4F818C0DF
:100EE0004EF60005CFF6FF7505EB4C352B434D68EC
:100EF000B2F5807F25F4694543EA05034B608B68B2
:100F00004FF2FD75CFF6E17503EA050343EA0003EE
:100F10008B6001D0012A07D122690023CFF6F0733C
:100F200003EB025201E000BF0022CB6A23F47003FE
:100F30001A43CA62896840F6FE62CFF61F721140FA
:100F4000814207D10020E062A16A012262F301011F
:100F5000A162B0BDA06A40F0100020F00200A062C3
:100F6000E06A40F00100E0620120B0BD70B586B0DB
:100F7000044640F60000C4F20100216800F5E0528A
:100F8000002691420596049602D006B070BD00BFBF
:100F900041F21801C4F202010A6842F400720A60C8
:100FA0000A6802F400720192019A0A6842F004028F
:100FB0000A60096801F0040101910199012102917F
:100FC0000321039102A900F08FFA40F2EC050820FA
:100FD000C2F20005C4F202004FF40072C5E9000637
:100FE00005F1100080214FF400634FF0200C80E8E1
:100FF0000C102846C5E90261EE6100F0E3F9002813
:1010000018BFFFF729FE25626C6206B070BD0000B4
:1010100070B515460446006842F60002C4F20102AB
:1010200090420E4605D042F20041C4F201018842CE
:1010300009D142F20440C4F20100006810F4702F9C
:101040001CBF012070BD94F82400012804BF0220B9
:1010500070BD012084F824002046FFF797FD18B1E9
:10106000002184F8241070BD42F204402168A26A75
:10107000C4F2010040F601739A4300F57F7302F554
:1010800080729942A26243D0A06A20F48010A062CC
:101090004868400504D5A06A012262F30D30A062C1
:1010A000A26A0020D2044FF0000244BFE26A22F09C
:1010B0000602E26284F82400206A40F61932C0F683
:1010C000000240F6853340F66D3C00F1280EC0F674
:1010D0000003C0F6000C8EE80C106FF002020A60EC
:1010E0008A682B4642F480728A604C31324600F0A6
:1010F000ADF92068816801F460228168B2F5602F43
:101100000CBF41F4A00141F480118160002070BD4A
:10111000026812F4702FB7D0A26A42F48012A26261
:1011200000684005BCD5B6E7014690F821000228CA
:1011300016D10868D1E90FC3026822F00E020260DE
:10114000026822F001020260012000FA03F2CCF8EA
:10115000042081F821000020002281F8202070471F
:10116000042088630120002281F8202070470000BD
:1011700080B590F82110022924D10268116821F06D
:101180000E0111602F211368C4F202018A4240F25D
:101190000401C4F2020123F00103136016DD3023C1
:1011A000C4F202039A421DD04423C4F202039A42BD
:1011B0001CD05823C4F202039A421DD14FF480334D
:1011C00022E000BF04218163012080BD0823C4F216
:1011D00002039A420ED01C23C4F202039A420BD19E
:1011E000102311E04FF480730EE000BF4FF48053E2
:1011F0000AE000BF012307E001F1680C4FF08073A3
:10120000624508BF4FF480130B60012180F8211064
:10121000426B002180F820100AB190470021084657
:1012200080BD000010B5D0E90FCE0168DCF80030B9
:101230000A6823FA0EF35C072AD512F0040427D0BB
:101240000A68920603D40A6822F004020A602F2278
:10125000C4F20202914240F20402C4F202025BDDD7
:101260003023C4F20203994272D04423C4F2020331
:10127000994273D05823C4F20203994240F07A8015
:101280004FF480231360C16A002940F098806FE01A
:101290009C0727D512F0020424D00A68920606D4CF
:1012A0000A6822F00A020A60012280F821202F2217
:1012B000C4F20202914240F20402C4F202023BDD97
:1012C0003023C4F20203994260D04423C4F20203E3
:1012D00099425FD05823C4F20203994260D14FF47F
:1012E000003365E01B0743D512F0080208BF10BDAC
:1012F0000A6822F00E020A60012101FA0EF2CCF80F
:101300000420816380F82110016B0022002980F8FD
:10131000202054D12CE000BF0823C4F202039942DC
:1013200022D01C23C4F20203994223D1402313602C
:10133000C16A002943D11BE00823C4F20203994289
:101340002CD01C23C4F20203994229D120232FE080
:101350004FF480631360C16A89BB09E04FF4804396
:101360001360C16A59BB03E004231360C16A31BB37
:1013700010BD00BF02F168044FF08063A14208BFB6
:101380004FF480031360C16AC9B9F1E74FF40073E9
:101390000EE000BF4FF400530AE000BF022307E055
:1013A00002F168044FF00073A14208BF4FF400132C
:1013B0001360816A0022002980F82020D8D0BDE87F
:1013C00010400847014600284FF0010008BF704751
:1013D0002DE9F043D1F800C04FF6F873CBF6FD735A
:1013E0004CF6CD426344CCF6CC42A3FB02236FF013
:1013F000030707EA93030027C4F2020701F10C096F
:10140000C1E90F730223D1E9012E99E87002D1F8E6
:101410001C8081F82130DCF8003043F6F077BB43C4
:101420001A4342EA0E0222432A43324342EA0902A5
:1014300042EA0802CCF8002000228A6381F82100E9
:1014400081F820200020BDE8F0437047F0B590F807
:1014500020C0BCF1010F32D04FF0010E80F820E027
:1014600090F821C0BCF1010F26D14FF0020C80F89A
:1014700021C04FF0000CC0F838C0D0E900C4C56AE4
:10148000C66BDCF80070102C27F00107CCF8007058
:10149000006C0EFA00F070600846CCF8043004BF0F
:1014A00010460A46CCF80800CCF80C20DCF8000006
:1014B00045B140F00E000DE0002180F82010022020
:1014C000F0BD00BF20F00400CCF80000DCF8000004
:1014D00040F00A00CCF80000DCF8000040F0010009
:1014E000CCF800000020F0BD2DE9F04F82B00E686E
:1014F000002E00F0038141F20042C4F201020423F5
:1015000040F2004E904208BF03234FF6FF7CC4F226
:10151000010E009300240123C1F2100C4FF0000AC9
:101520004FF0000949E000BF012704F00C030F222F
:101530009A402BEA020207FA03F34FEA9A051A438C
:1015400046F82520D1F804B040F20C455FEACB22E2
:10155000DEF8082054BF22EA080242EA0802C4F278
:101560000105CEF808202A685FEA8B2354BF22EADF
:10157000080242EA08022A605FEA8B33DEF80420A0
:1015800054BF22EA080242EA08025FEACB33CEF8EF
:101590000420DEF800204FF0010354BF22EA0802C5
:1015A00042EA0802CEF800200E680AF1010A36FA73
:1015B0000AF204F1040400F0A18003FA0AF816EA22
:1015C000080FF1D04E68664512DC122E56D8DFE8BF
:1015D00006F0350B454955555555555555555555F5
:1015E0005555554D510000BFD1F80C9046E000BF55
:1015F0004FF6FF72C1F2210296420FDC0022C1F2C7
:10160000110296421AD00022C1F21202964215D05F
:101610000022C1F22102964210D02FE00022C1F236
:10162000220296420AD00022C1F23102964205D02F
:101630000022C1F23202964220D100BF8A684AB12C
:10164000012A14BFC0F81480C0F810804FF00809B8
:1016500014E000BF4FF0040910E000BFCA6802F1B7
:1016600008090BE04FF0000908E000BFCA6802F16A
:10167000040903E0CA6802F10C0900BF22460646CD
:10168000BAF1080F24BF203A043637680F25954079
:1016900027EA050509FA02F22A433260CA79D2061E
:1016A0007FF582AF41F21803C4F202031A68AEF567
:1016B0007E7642F001021A601A6802F0010201927D
:1016C000019A2AF0030256F802B040F60002C4F272
:1016D0000102904210D040F60042C4F20102904252
:1016E0003FF422AF41F20002C4F20102009F904297
:1016F00008BF022719E700BF002716E702B0BDE8C0
:10170000F08F0000C26802EA0103914341EA0341FD
:1017100001617047002A08BF090401617047000099
:1017200040F20820C2F200000068704740F200005A
:1017300040F20821C2F20000C2F2000100780A68FB
:10174000104408607047000080B542F20000C4F207
:101750000200016841F010010160032000F08EF8E2
:101760000F2000F005F800F027F8002080BD0000F1
:1017700070B540F20006C2F2000640F2080132786D
:10178000C2F200014FF47A730968B3FBF2F2044627
:10179000B1FBF2F1084600F0E9FB0F2C4FF0010518
:1017A00008D838B94FF0FF3021460022002500F05C
:1017B00039F87460284670BD82B041F21800C4F256
:1017C00002000168022241F001010160016801F09C
:1017D000010101910199416841F0805141604068E7
:1017E00000F08050009000980420C4F201000168CD
:1017F00062F31A61016002B070470000002848BF20
:101800007047C1B200F01F00012202FA00F04EF250
:101810000012CEF2000242EAD10121F00301086079
:101820007047000010B54EF60C5CCEF2000CDCF8F0
:101830000030C3F3022E8EF00704042C28BF0424CA
:10184000BEF103034FF0FF3E0EFA04F438BF00234D
:10185000A14399400EFA03F39A43114300F00F029B
:1018600000F160430901043A03F56443624400282F
:1018700048BF02F10C03197010BD00004EF60C5168
:10188000CEF200010A684FF6FF031A4060F30A2205
:1018900042F0806040F0FD70086070472DE9F04133
:1018A00082B00446007841F21C06C007C4F202066A
:1018B0004AD0306810F0805808D1306840F080502D
:1018C0003060306800F080500190019847F20007C6
:1018D000C4F200073868C00512D4386840F480703C
:1018E0003860FFF71DFF05463868C00508D4FFF7CC
:1018F00017FF401B6428F7D9032002B0BDE8F08130
:10190000706810F4407012D0616801F44071884230
:101910000DD0706840F24042C4F24222012320F40C
:10192000407113600023C007136071602AD1706892
:10193000616820F440700843B8F1000F706003D173
:10194000306820F0805030602068810707D556F855
:10195000181CA26821F44041114346F8181CC00627
:1019600004D4002002B0BDE8F08100BF56F8180C86
:10197000E16820F48000084346F8180C002002B00B
:10198000BDE8F081FFF7CCFE054641F2883700BF85
:1019900070688007CBD4FFF7C3FE401BB8424FF0FE
:1019A0000300F5D9EBE700002DE9F04381B00028F2
:1019B00000F0858042F20008C4F202080446D8F81C
:1019C00000000D4600F0070088420CD2D8F8000055
:1019D00020F007002843C8F80000D8F8000000F005
:1019E0000700A8426BD1206841F204098107C4F2C4
:1019F000020917D5410705D5D9F8001041F4E06177
:101A0000C9F80010010705D5D9F8001041F460515C
:101A1000C9F80010D9F80010A26821F0F0011143B4
:101A2000C9F80010C00741D1D8F8000000F0070045
:101A3000A8420CD9D8F8000020F007002843C8F8C5
:101A40000000D8F8000000F00700A84237D1206855
:101A5000410707D5D9F80010E26821F4E06111438D
:101A6000C9F80010000708D5D9F80000216920F452
:101A7000605040EAC100C9F80000D9F8002002F027
:101A80000C00082841F20020C0F27A0050D144F640
:101A90001A43C2F38341C0F60003595CD2033BD41E
:101AA00040F60010C0F23D00484341E06068022863
:101AB0000AD001282AD159F8041C890308D401202E
:101AC00001B0BDE8F08300BF59F8041C8901F6D5C8
:101AD000D9F8001021F003010843C9F80000FFF70E
:101AE0001FFE064641F28837D9F80000616800F011
:101AF0000C00B0EB810F97D0FFF712FE801BB842AD
:101B0000F2D9032001B0BDE8F08300BF59F8041CEE
:101B10008907D4D5DCE700BFD9F8002044F6184384
:101B2000C2F34042C0F600039A5C4843B0FBF2F0B7
:101B3000D9F8001044F60042C1F30311C0F60002C8
:101B4000515C40F2080220FA01F140F20400C2F2B6
:101B500000000068C2F200021160FFF709FE0020D9
:101B600001B0BDE8F083000040F2080041F204013A
:101B7000C2F20000C4F202010068096844F6104293
:101B8000C1F30221C0F60002515CC840704700005A
:101B900040F2080041F20401C2F20000C4F2020166
:101BA0000068096844F61042C1F3C221C0F6000281
:101BB000515CC840704700002DE9F04182B0002818
:101BC00068D00446007841F20006C007C4F202065D
:101BD00025D0706800F00C0004281BD0706800F05D
:101BE0000C00082802D17068C00313D46068002874
:101BF00000F06881B0F5A02F00F07C81B0F5803F47
:101C000000F07C81306820F480303060306820F44F
:101C1000802076E13068800301D56068D0B32078F9
:101C2000800718D5706810F00C0F07D0706800F0AE
:101C30000C0008286ED17068C0036BD43068800730
:101C400002D52069012825D13068616920F0F800AB
:101C500040EAC1003060207800071FD42078400798
:101C600032D4E56995B1706800F00C00082840F0A6
:101C70008F80012D0ED07068216A00F480328A4274
:101C800008D1616A00F47010884203D1002002B0CC
:101C9000BDE8F081012002B0BDE8F081A069002814
:101CA00062D00020C4F242200121C0F88014FFF766
:101CB00037FD0546706A800700F18C80FFF730FD24
:101CC000401B0228F6D92AE1F06910F0805808D1AB
:101CD000F06940F08050F061F06900F080500090B1
:101CE000009847F20007C4F200073868C00529D4FD
:101CF000386840F480703860FFF712FD054600BF79
:101D00003868C0051ED4FFF70BFD401B6428F7D9C7
:101D100005E100BF2069002840F20000C4F2422023
:101D200000F0828001210160FFF7FAFC054600BF48
:101D3000306880073FF588AFFFF7F2FC401B0228B0
:101D4000F6D9ECE0E068002800F08080052800F07B
:101D50009780012800F09880306A20F001003062FE
:101D6000306A20F0040092E00020C4F242200021FA
:101D7000C0F88014FFF7D4FC054600BF706A8007E6
:101D80007FF56CAFFFF7CCFC401B0228F6D9C6E00C
:101D90000027C4F2422700203866FFF7C1FC022D5D
:101DA00005460BD13068800140F1BE80FFF7B8FCDA
:101DB000401B02284FF00300F4D968E73068800127
:101DC0007FF564AFFFF7ACFC401B02284FF0030027
:101DD000F4D95CE740F20800C2F20000006844F663
:101DE000D351C1F26201A0FB0101480A019000BF7A
:101DF00000BF0198411E002801913FF42FAF00BFA2
:101E00000198411E002801913FF428AF00BF0198BE
:101E1000411E002801913FF421AF00BF0198411EEF
:101E200000280191E4D119E700210160FFF778FC57
:101E3000054600BF306880077FF50DAFFFF770FCE7
:101E4000401B02284FF00300F4D920E7306A20F04D
:101E500001003062306A20F004003062FFF760FC5D
:101E6000054641F2883700BF306A800720D5FFF76A
:101E700057FC401BB8424FF00300F5D907E700BFFD
:101E8000306A40F004003062306A40F00100306295
:101E9000FFF746FC054641F2883700BF306A8007ED
:101EA00006D4FFF73DFC401BB842F7D937E000BF2E
:101EB000B8F1000F7FF4D5AEF06920F08050F061EA
:101EC000CFE600BF306820F480303060306820F406
:101ED00080203060FFF724FC054600BF3068800397
:101EE0007FF59DAEFFF71CFC401B64284FF00300FC
:101EF000F4D9CCE6306840F480203060306840F49B
:101F000080303060FFF70CFC054600BF306880036E
:101F10003FF585AEFFF704FC401B6428F6D903208B
:101F200002B0BDE8F08100BF206AB0F5803F05D166
:101F30007168A26821F40031114371607168626AAE
:101F400021F4741111430843706001203866FFF7D3
:101F5000E7FB0446306880013FF598AEFFF7E0FBF1
:101F6000001B02284FF00300F4D990E6411E002028
:101F7000B0EB116F1CBF012070474EF21002CEF281
:101F8000000251604EF62351CEF20001F0230B7097
:101F90000721906011607047704700007047000093
:101FA000B0B590F83C20012A04BF0220B0BD01F179
:101FB00008053CCDD1E900CE23F47C5322F47052C5
:101FC0001A432EF4F0431A432CF4E0431A4324F44A
:101FD000C0431A432A43C96922F48042036811436B
:101FE0005964002180F83C100846B0BD10B590F847
:101FF0003C20012A4FF0020233D080F83D200268D5
:10200000D2F804E0D2F808C00C682EF07003234325
:1020100040F2FF74C4F20004A24253600ADCB2F141
:10202000804F13D040F20043C4F200039A420DD017
:1020300011E000BF42F60043C4F201039A4205D00A
:1020400040F60003C4F200039A4204D149682CF020
:102050008003194391600121002280F83D1080F82F
:102060003C20104610BD0000002804BF012070472E
:1020700010B5044690F83D0028B9002084F83C00D3
:10208000204600F067F8022084F83D00206840F206
:10209000FF730268C4F2000342F6004C9842C4F297
:1020A000010C15DCB0F1804F1AD040F20041C4F2AF
:1020B0000001884214D0984218DCB0F1804F1DD046
:1020C00040F20041C4F20001884217D01AE000BF7C
:1020D000604505D040F60001C4F200018842EAD113
:1020E000A16822F070020A439842E6DD604505D0FF
:1020F00040F60001C4F20001884203D1216922F4B4
:1021000040720A43A36922F08001D4F804E0E26837
:10211000194360450160C262C0F828E002D16169DC
:10212000CCF8301001214161002084F8461084F879
:102130003E1084F83F1084F8401084F8411084F871
:10214000421084F8431084F8441084F8451084F851
:102150003D1010BD10B582B0006840F20041C4F2DD
:102160000001884220D042F60041C4F201018842B9
:1021700034D141F21800C4F202000168002241F497
:10218000006101600068002100F400600190019886
:102190001920FFF747FB1920FFF730FB1B20002118
:1021A00000221B2411E000BF41F21800C4F202001B
:1021B0004168002241F0020141604068032100F0C3
:1021C0000200009000981D201D24FFF72BFB2046E5
:1021D00002B0BDE81040FFF711BB00BF02B010BD58
:1021E00090F83D1001291CBF01207047022180F8A2
:1021F0003D10006840F2FF71C4F20001884209DC22
:10220000B0F1804F12D040F20041C4F20001884288
:102210000CD012E042F60041C4F20101884205D020
:1022200040F60001C4F20001884206D1816801F045
:102230000701062904BF00207047016841F0010131
:10224000016000207047000090F83D1001291CBF7C
:1022500001207047022180F83D10006840F2FF72B3
:10226000C168C4F20002904241F00101C16009DC82
:10227000B0F1804F12D040F20041C4F20001884218
:102280000CD012E042F60041C4F20101884205D0B0
:1022900040F60001C4F20001884206D1816801F0D5
:1022A0000701062904BF00207047016841F00101C1
:1022B000016000207047000080B590F83C20012AA2
:1022C0004FF0020200F0C28080F83D20D0F800C03C
:1022D0004FF67772DCF8083023EA0202CCF80820C7
:1022E0000B684F2B28DC1F2B44DD202B45D0302BD7
:1022F00043D0402B40F0AC80D1F804E0C968DCF852
:102300002030DCF8202022F00102CCF82020DCF87C
:10231000182022F0F00242EA011123F00A0242EAF8
:102320000E02CCF81810CCF82020DCF8081041F090
:10233000470121F0300180E06F2B27DDB3F5005F0E
:1023400048D0B3F5805F7AD0702B40F08180D1E91E
:1023500001E3C968DCF8082043EA0E0322F47F4257
:1023600043EA01211143CCF80810DCF8081041F0D1
:10237000770162E00BB1102B6AD1DCF8081021F074
:102380007001194341F0070157E000BF502B35D0D1
:10239000602B5DD1D1F804E0C968DCF82030DCF8AE
:1023A000202022F01002CCF82020DCF8182022F4A3
:1023B000704242EA013123F0A00242EA0E12CCF848
:1023C0001810CCF82020DCF8081041F0670121F04B
:1023D000100132E0D1E901E3C968DCF8082043EAE2
:1023E0000E0322F47F4243EA01211143CCF8081086
:1023F000DCF8081041F480411FE000BFD1F804E090
:10240000C968DCF82030DCF8202022F00102CCF88A
:102410002020DCF8182022F0F00242EA011123F01B
:102420000A0242EA0E02CCF81810CCF82020DCF8A0
:10243000081041F0570121F02001CCF808100022CB
:10244000012180F83D10002180F83C10104680BD2D
:102450000122F5E77047000010B5016804460869DD
:10246000800744BFC8685FEA807039D408694007B4
:1024700044BFC8685FEA40703ED40869000744BFA3
:10248000C8685FEA007045D40869C00644BFC868E0
:102490005FEAC0604AD40869C0071CBFC8685FEA29
:1024A000C07051D10869000644BFC8685FEA006087
:1024B00052D40869400644BFC8685FEA406053D4FC
:1024C0000869800646BFC8685FEA806010BD6FF08B
:1024D000200220460A61BDE81040FFF75FBD00BF43
:1024E0006FF002000861012020778869800743D0DF
:1024F0002046FFF7AFFF45E06FF0040008610220BF
:102500002077886910F4407F40D02046FFF7A2FF73
:1025100042E000BF6FF00800086104202077C8691E
:1025200080073DD02046FFF795FF3FE06FF0100099
:10253000086108202077C86910F4407F3AD020460F
:10254000FFF788FF3CE000BF6FF001000861204604
:1025500000F09EFB2168A5E76FF08000086120462F
:10256000FFF71AFD2168A4E76FF0400008612046DC
:1025700000F08CFC2168A3E7204600F01FF92046FC
:1025800000F014FB2168002020776FE7204600F060
:1025900015F9204600F00AFB2168002020776CE73F
:1025A000204600F00BF9204600F000FB21680020D7
:1025B000207769E7204600F001F9204600F0F6FA9E
:1025C00021680020207766E780B586B040F20041A0
:1025D0000068C4F2000100228842049202D006B0D2
:1025E00080BD00BF41F21800C4F20200026842F050
:1025F00004020260006800F004000190019840208D
:10260000029002200390059001F5823002A9FEF7A6
:102610006BFF06B080BD00002DE9F04190F83C3022
:10262000012B04BF0220BDE8F0814FEAB202032A69
:1026300030D8DFE802F00337679700BF026842F640
:102640000045146A136AC4F2010523F00103136202
:102650005368D2F818C0AA428D68D1F800E024F07F
:10266000020444EA05040BD1CD68D1E9056723F4DF
:10267000407324F00C0425F0040533432C433B4302
:102680002CF0730747EA0E0753609761496851635E
:1026900014628BE00121002280F83C200846BDE84E
:1026A000F08100BF026842F60045146A136AC4F262
:1026B000010523F0100313625368D2F818C0AA4230
:1026C0008D68D1F800E024F0200444EA05140FD10D
:1026D000CD68D1E905876FF0400624F0C00406EA12
:1026E00005152C4323F4406348EA070543EA8503B4
:1026F0002CF4E64747EA0E275360976149689163D7
:10270000146253E0026842F60045146A136AC4F288
:10271000010523F4807313625368D2F81CC0AA42E7
:102720008D68D1F800E024F4007444EA05240FD148
:10273000CD68D1E905872D0240F2FF4624F44064BC
:10274000B5432C4323F4405348EA070543EA0513F5
:102750002CF0730747EA0E075360D7614968D163CD
:10276000146223E0026842F60046D2F820C0136AE1
:10277000C4F2010623F4805313625368D4690D68D0
:10278000D1F808E0B24204D14E6923F4804343EA11
:10279000861324F4E64646EA05265360D6612CF4F7
:1027A0000057496847EA0E33116413620021002282
:1027B00080F83C200846BDE8F0810000704700002A
:1027C000002804BF0120704710B5044690F83D0072
:1027D00028B9002084F83C00204600F067F8022069
:1027E00084F83D00206840F2FF730268C4F20003E1
:1027F00042F6004C9842C4F2010C15DCB0F1804F57
:102800001AD040F20041C4F20001884214D098422C
:1028100018DCB0F1804F1DD040F20041C4F200013D
:10282000884217D01AE000BF604505D040F600018D
:10283000C4F200018842EAD1A16822F070020A4382
:102840009842E6DD604505D040F60001C4F2000183
:10285000884203D1216922F440720A43A36922F01D
:102860008001D4F804E0E268194360450160C26267
:10287000C0F828E002D16169CCF830100121416133
:10288000002084F8461084F83E1084F83F1084F845
:10289000401084F8411084F8421084F8431084F802
:1028A000441084F8451084F83D1010BD70470000B6
:1028B0002DE9F04390F83C30012B04BF0220BDE825
:1028C000F0834FEAB202032A3CD8DFE802F0034368
:1028D00081BD00BF036842F600461D6A1A6AC4F251
:1028E000010622F001021A621A465C6852F818CFFB
:1028F000B3428E68D1F800E025F0020545EA0605EE
:102900000CD1CE68D1E9057824F4407425F00C058B
:1029100026F004063C43354344EA08042CF07307D0
:1029200047EA0E075C609F614F6809695F631D623B
:102930009F6947F008079F619F6927F004079F611F
:10294000B2E000BF0121002280F83C200846BDE82B
:10295000F08300BF036842F600461D6A1A6AC4F29B
:10296000010622F010021A621A46D3F804C052F887
:10297000184FB3428E68D1F800E025F0200545EAF3
:10298000061510D1CE68D1E9058725F0C0096FF092
:10299000400505EA06152CF4406647EA080745EAB3
:1029A000090546EA870C24F4E64444EA0E27C3F8F6
:1029B00004C09F614F6809699F631D629F6947F466
:1029C00000679F619F6927F480679F616BE000BF8C
:1029D000036842F600461D6A1A6AC4F2010622F430
:1029E00080721A621A46D3F804C052F81CEFB34240
:1029F0008E680C6825F4007545EA062511D1CE686D
:102A0000D1E9058725F44069360240F2FF4526EA00
:102A100005052CF4405647EA080745EA090546EA49
:102A2000071C2EF073072743C3F804C0DF614F680B
:102A30000969DF631D62DF6947F00807DF61DF694D
:102A400027F00407DF612FE0036842F60047D3F860
:102A500020C01A6AC4F2010722F480521A621A4690
:102A60005C6852F81C5FD1F800E08E68BB4204D16C
:102A70004F6924F4804444EA87142CF4005747EA51
:102A8000063725F4E64646EA0E265C60DE614E68AF
:102A900009691E641F62DF6947F40067DF61DF694F
:102AA00027F48067DF610902136819431160002170
:102AB000002280F83C200846BDE8F083002804BFCF
:102AC0000120704710B5044690F83D0028B9002059
:102AD00084F83C00204600F067F8022084F83D00AE
:102AE000206840F2FF730268C4F2000342F6004C13
:102AF0009842C4F2010C15DCB0F1804F1AD040F2BC
:102B00000041C4F20001884214D0984218DCB0F1B0
:102B1000804F1DD040F20041C4F20001884217D01E
:102B20001AE000BF604505D040F60001C4F2000184
:102B30008842EAD1A16822F070020A439842E6DD99
:102B4000604505D040F60001C4F20001884203D17F
:102B5000216922F440720A43A36922F08001D4F86B
:102B600004E0E268194360450160C262C0F828E0F1
:102B700002D16169CCF8301001214161002084F854
:102B8000461084F83E1084F83F1084F8401084F812
:102B9000411084F8421084F8431084F8441084F8FB
:102BA000451084F83D1010BD7047000070470000CC
:102BB00041B1082910D0042914BF00F1410200F1ED
:102BC0003F020BE090F83E20012A1CBF0120704715
:102BD000022280F83E2013E000F140021278012A20
:102BE0001CBF012070470222082907D0042914BF06
:102BF00080F8412080F83F2002E000BF80F84020AC
:102C0000006801F01F010122036A8A4023EA0201E1
:102C10000162036A42F64441C4F201011A43A1F180
:102C20004403984202620FD040F2FF71C4F20001E7
:102C3000884213DCB0F1804F1CD040F20041C4F256
:102C40000001884216D01CE00A6842F400420A6083
:102C500040F2FF71C4F200018842EBDD42F6004110
:102C6000C4F20101884205D040F60001C4F200011F
:102C7000884206D1816801F00701062904BF0020BF
:102C80007047016841F001010160002070470000B9
:102C9000F0B581B040F60044C4F20104006804F5C8
:102CA000005188421CBF01B0F0BD40F29007C2F253
:102CB0000007B86801F088FE01F0F0FD4DF62F52D4
:102CC00045F28153C0F22462C4F2200301F038FCC3
:102CD00001F004FC054601F0E1FD07F10C06024697
:102CE0000B4660A13046FDF77BFA3046FDF728FB26
:102CF00082B240F2C010C2F2000031464FF0FF3302
:102D000000F034FCA4F580600821FEF7FBFC0021F4
:102D1000C4F22011284601F001FEA8B940F2781053
:102D2000C2F2000000684FF4617141632046042143
:102D30000122FEF7EFFC204602210022FEF7EAFC0A
:102D4000204601211BE000BF0021C4F220112846CB
:102D500001F0F2FD00283FD10021C4F220212846D5
:102D600001F0DCFDC0BB204602210122FEF7D2FCAF
:102D7000204601210022FEF7CDFC2046042100223E
:102D8000FEF7C8FC386800220130052838601BD3E4
:102D900040F20C05384838A13A60C2F200050F1D18
:102DA0008CCF85E80D00087CEF6028742846FDF77D
:102DB000C7FA82B240F2C010C2F2000029464FF0BA
:102DC000FF3300F0D3FB01222046082101B0BDE80B
:102DD000F040FEF79FBC00BF0021C4F2202128462E
:102DE00001F0A3FDF0B90021C4F24821284601F00A
:102DF00095FDB8B9204601210122FEF78BFC204643
:102E000002210022FEF786FC204604210022FEF764
:102E100081FC40F27810C2F2000000684FF4487163
:102E20001DE000BF0021C4F24821284601F07DFDCD
:102E30000028A7D1204601210122FEF76BFC204685
:102E400002210022FEF766FC204604210022FEF744
:102E500061FC40F27810C2F200000068C8214163B2
:102E600090E700BF54656D7065726174757265207E
:102E70002025302E660D0A0054696D6520746F2080
:102E80005761746572210D0A000000007047000050
:102E90007047000070470000B0B582B0044600687B
:102EA0000168C368426901F02F05202D03F0200559
:102EB00006D12DB1204602B0BDE8B04000F0BABC4A
:102EC0005FEA017C1EBF02F0010E03F4907212EB68
:102ED0000E0253D1226B012A05D111F0100218BF46
:102EE00013F0100236D10A0622D513F080021FD04B
:102EF00094F8411021293FD1A168B1F5805F03D139
:102F00002169002900F07082216A4A1C2262097836
:102F10004160E18C01390A04E1842DD1C16821F0BE
:102F20008001C160C16841F04001C16002B0B0BD24
:102F3000490621D513F040011ED0C16821F040019F
:102F4000C1602021204684F8411002B0BDE8B040A5
:102F500000F048BC00210191016801914168019194
:102F600001994069400613D4A08DE18DE28D002ABD
:102F700018BF884240F0BA8102B0B0BDCA0718BF7E
:102F800013F4807240F0B6804A0700F1B980BEE0C9
:102F9000E06B016849688AB2002AEDD0A38D9A429D
:102FA000EAD2E1858069202800F09C80206850E802
:102FB000030F216820F4807041E80302DAB1206831
:102FC00050E8030F216820F4807041E8030292B1B9
:102FD000206850E8030F216820F4807041E8030264
:102FE0004AB1206850E8030F216820F4807041E85E
:102FF0000302002ADAD1206850E8050F216820F08A
:10300000010041E80502DAB1206850E8050F2168A7
:1030100020F0010041E8050292B1206850E8050F58
:10302000216820F0010041E805024AB1206850E81B
:10303000050F216820F0010041E80502002ADAD1DD
:10304000206850E8050F216820F0400041E80502A3
:10305000DAB1206850E8050F216820F0400041E80F
:10306000050292B1206850E8050F216820F0400069
:1030700041E805024AB1206850E8050F216820F0B8
:10308000400041E80502002ADAD1202084F84200FD
:1030900000202063206850E8030F216820F0100012
:1030A00041E80302DAB1206850E8030F216820F0FC
:1030B000100041E8030292B1206850E8030F216834
:1030C00020F0100041E803024AB1206850E8030FE5
:1030D000216820F0100041E80302002ADAD1E06BF9
:1030E000FEF722F802206063A08DE18D401A81B2C4
:1030F000204674E1626C42F0010262644A0706D520
:10310000BEF1000F03D0626C42F0020262648A07D3
:1031100006D5BEF1000F03D0626C42F00402626477
:10312000BCF1000F09D545EA0E02B2FA82F252094B
:1031300003D1626C42F008026264626C002A3FF4C0
:103140001BAF11F0200118BF002D03D0204600F066
:1031500071FB20684069616C00F0400001F00801DB
:10316000401800F0B58000BF206850E8030F2168C8
:1031700020F4907041E80302BAB3206850E8030FCE
:10318000216820F4907041E8030272B3206850E88F
:10319000030F216820F4907041E803022AB32068ED
:1031A00050E8030F216820F4907041E80302002AE0
:1031B000DAD11AE0206850E8050F216820F00100FC
:1031C00041E80502DAB1206850E8050F216820F0D7
:1031D000010041E8050292B1206850E8050F21681E
:1031E00020F0010041E805024AB1206850E8050FCF
:1031F000216820F0010041E80502002ADAD1206BA5
:10320000012824D1206850E8030F216820F0100025
:1032100041E80302DAB1206850E8030F216820F08A
:10322000100041E8030292B1206850E8030F2168C2
:1032300020F0100041E803024AB1206850E8030F73
:10324000216820F0100041E80302002ADAD1202092
:1032500084F84200002020632068406940063FD582
:10326000206850E8050F216820F0400041E8050281
:10327000DAB1206850E8050F216820F0400041E8ED
:10328000050292B1206850E8050F216820F0400047
:1032900041E805024AB1206850E8050F216820F096
:1032A000400041E80502002ADAD1E06BC0B143F6E4
:1032B0002901C0F600014163FDF75AFF00283FF4E1
:1032C0005BAEE06B416B02B0BDE8B040084700BFA9
:1032D0002046FFF7DFFD0020606402B0B0BD00BFF4
:1032E000204602B0BDE8B040FFF7D4BD401A2168C7
:1032F00051E8031F226821F4907142E80313DBB107
:10330000216851E8031F226821F4907142E80313F9
:1033100093B1216851E8031F226821F4907142E8BB
:1033200003134BB1216851E8031F226821F4907107
:1033300042E80313002BDAD1216851E8051F226807
:1033400021F0010142E80513DBB1216851E8051FB6
:10335000226821F0010142E8051393B1216851E888
:10336000051F226821F0010142E805134BB12168D5
:1033700051E8051F226821F0010142E80513002BE6
:10338000DAD1202184F8421000212163216851E81C
:10339000031F226821F0100142E80313DBB121680A
:1033A00051E8031F226821F0100142E8031393B192
:1033B000216851E8031F226821F0100142E803133D
:1033C0004BB1216851E8031F226821F0100142E847
:1033D0000313002BDAD1022281B22046626302B0CD
:1033E000BDE8B040FFF754BD216A31F8022B6FF3FE
:1033F0005F22426021628CE5002804BF01207047F3
:1034000010B5044690F8410028B9002084F8400027
:10341000204600F063F8242084F841002068D4E9B5
:103420000212C36823F40053C360036923F44053BA
:103430001A430261D4E904231143C268194341F2DB
:103440000C639A431143C1604169A26921F4407140
:10345000114343F60002C4F201029042416103D0DD
:10346000FEF782FB02E000BFFEF792FB62681921C3
:1034700048439100B0FBF1F048F21F51C5F2EB1147
:10348000A0FB01235A094FF69C73C0F6FF7302FBA1
:103490000300322303EB0010A0FB0101F02303EA39
:1034A0005113206803EB0212C1F3431111448160F0
:1034B000016921F490410161416921F02A014161D2
:1034C000C16841F40051C16000202021606484F88B
:1034D000411084F84210606310BD000070B586B0E2
:1034E00040F60004C4F20104006804F540510026CF
:1034F0008842049602D006B070BD00BF41F21800A9
:10350000C4F20200016802AD41F48041016001682B
:1035100001F4804101910199016841F004010160C9
:103520000068294600F00400019001984FF40070F3
:10353000029002200390032005902046FDF7D4FF5F
:103540004FF48060CDE90206204629460496FDF737
:10355000CBFF252001210022FEF764F92520FEF78C
:103560004DF906B070BD0000704700002DE9F04332
:1035700081B0044690F84100202840F0B180884690
:1035800000294FF0010000F0D6801646002A00F016
:10359000D2800020606421201D4684F84100FEF79F
:1035A000BFF8A684E684A1680646B1F5805F03D122
:1035B0002069002800F0988047464FF00008E18C11
:1035C0002068002900F0968005F101090BE000BF9A
:1035D00047B317F8011B4160E18C0139E184E18CAC
:1035E000002900F0878001680906F1D4B9F1000FC5
:1035F0000AD0EDB1FEF794F8801BA84218D82068D5
:1036000001680906F6D5E3E701680906E0D4016818
:1036100009065CBF01685FEA0161D9D40168090647
:10362000F2D5D5E738F8021B00276FF35F21D2E708
:10363000206850E8030F216820F4D07041E80302AD
:10364000BAB3206850E8030F216820F4D07041E835
:10365000030272B3206850E8030F216820F4D07091
:1036600041E803022AB3206850E8030F216820F4E0
:10367000D07041E80302002ADAD11AE0206850E84D
:10368000050F216820F0010041E80502DAB1206849
:1036900050E8050F216820F0010041E8050292B1D1
:1036A000206850E8050F216820F0010041E805027C
:1036B0004AB1206850E8050F216820F0010041E878
:1036C0000502002ADAD1202084F8410084F8420063
:1036D000002084F84000032001B0BDE8F08300BF63
:1036E000022001B0BDE8F0830027E18C20680029AA
:1036F0007FF46AAF0168490619D4FDB1691C0DD188
:103700000168490613D4016849065CBF01685FEA95
:1037100041610CD401684906F2D508E0FEF700F8D3
:10372000801BA8420AD8206800684006F6D52020F1
:1037300084F84100002001B0BDE8F083206850E823
:10374000030F216820F4D07041E80302002A3ED024
:10375000206850E8030F216820F4D07041E803028C
:10376000AAB3206850E8030F216820F4D07041E824
:10377000030262B3206850E8030F216820F4D07080
:1037800041E80302002AD9D121E000BF206850E8B7
:10379000050F216820F0010041E80502002A3FF4EE
:1037A00092AF206850E8050F216820F0010041E841
:1037B0000502002A3FF487AF206850E8050F216812
:1037C00020F0010041E80502002A3FF47CAF2068A8
:1037D00050E8050F216820F0010041E80502002AA9
:1037E000D4D170E770470000FEE70000FEE700005C
:1037F000FEE700007047000070470000FDF796BF2D
:103800007047000040F23010C2F20000FEF724BE04
:1038100040F23010C2F20000FEF71EBE40F27810F7
:10382000C2F20000FEF718BE406A0021C185C184C3
:10383000FFF730BB81B090F84210222921D1836874
:103840000246B3F5805F09D152F8281F52F8183CA0
:10385000002B63D003685B680AE000BF52F8281FA2
:1038600013B90369002BF5D003685B6803F07F038D
:103870000B70116801311160C18D01390A04C185D5
:1038800002D001B0704700BF0168CA6822F0200270
:10389000CA60CA6822F48072CA604A6922F00102D2
:1038A0004A61202180F8421000214163026B012A05
:1038B0003CD10163016851E8031F026821F0100147
:1038C00042E80313DBB1016851E8031F026821F0ED
:1038D000100142E8031393B1016851E8031F026825
:1038E00021F0100142E803134BB1016851E8031FB6
:1038F000026821F0100142E80313002BDAD10168BD
:103900000A68D20606D5002200920A680092496829
:1039100000910099818D01B0FFF7BABA0268526830
:103920006FF35F2221F8022B8162A5E701B0FFF758
:103930001BBE000040F2C010C2F20000FFF7ACBA9C
:10394000FEE7000098B0FDF7FFFE01AC201D24212A
:10395000FCF715FD022001900120059010200025A4
:10396000069020461795CDE915550895FEF724F9E0
:1039700020B1EFF3108072B6FEE700BF0F20CDE953
:103980000B059020CDE90D054FF4A0600F900BA81A
:103990000021FEF709F828B1EFF3108072B600BFDE
:1039A000FEE700BF4FF00209002714A8CDF85090A1
:1039B0001697FDF773FF28B1EFF3108072B600BFC2
:1039C000FEE700BF41F21805C4F20205286840F680
:1039D000000840F0200028602868C4F2010800F0C8
:1039E0002000019001982868182140F00400286008
:1039F0002868002200F00400019001982868182629
:103A000040F008002860286800F008000190019844
:103A10004046FDF77FFE08F5806420460F21002216
:103A20004FF00F0BFDF776FE019601AE4FF0010A45
:103A300040463146CDE902A7CDF81090FDF754FD80
:103A400020463146CDE901BACDE90379FDF74CFDB9
:103A500055F8040C022140F0010045F8040C55F81B
:103A6000040C002200F00100019001980B20FDF7EA
:103A7000D9FE0B20FDF7C2FE40F29006C2F200060E
:103A800008F5E051304640F82C1F4FF4602180F8D3
:103A90000CA00775C161C0E90177C0F810A0FDF75F
:103AA000B7F928B1EFF3108072B600BFFEE700BF90
:103AB000052006F12C040025039001A92046CDE93C
:103AC000015AFDF7CFF828B1EFF3108072B600BFAE
:103AD000FEE700BF40F2C01008F54051C2F20000FE
:103AE0000C234FF4165280E82600C0E90355C0E9C4
:103AF0000535C561FFF780FC20B1EFF3108072B689
:103B0000FEE700BF40F278100021A8F58232C2F231
:103B1000000013234FF47A770E91CDE90C11CDE913
:103B20001411CDE90611CDE90411C0E90023C0E963
:103B3000021701618161FEF797FA28B1EFF3108057
:103B400072B600BFFEE700BF4FF480500B9040F20A
:103B50007810C2F200000BA9FEF7AEFB20B1EFF324
:103B6000108072B6FEE700BF40F27810C2F200008B
:103B7000FEF7A4FF20B1EFF3108072B6FEE700BF9E
:103B800040F27810C2F2000014A9FEF72FFA28B113
:103B9000EFF3108072B600BFFEE700BF6020019017
:103BA0004FF4FA70029040F278100025C2F2000043
:103BB00001A9002203950595FEF77AFE20B1EFF3E7
:103BC000108072B6FEE700BF40F27810C2F200002B
:103BD000FEF7FAFC40F2301008F51051C2F2000076
:103BE0004FF6FF131795CDE91555CDE912550795F9
:103BF0007C2280E82600C0E90335C0E90555FEF7C0
:103C000033FA18B1EFF3108072B6FEE74FF480502C
:103C1000149040F23010C2F2000014A9FEF74CFBE1
:103C200020B1EFF3108072B6FEE700BF40F2301013
:103C3000C2F20000FEF7C4FD20B1EFF3108072B6AF
:103C4000FEE700BF40F23010C2F2000012A9FEF7FA
:103C5000CDF918B1EFF3108072B6FEE700254FF4EE
:103C6000FA40CDE90C0540F23010C2F200000BA979
:103C700000220B95CDE90E55CDE91055FEF7CCFC91
:103C800020B1EFF3108072B6FEE700BF4FF4005092
:103C9000069040F23010C2F2000001A90595CDE96E
:103CA0000355CDE901550895FEF77AF920B1EFF3F8
:103CB000108072B6FEE700BF311D20460122FDF7DD
:103CC000A7F940F23010C2F20000FEF7BDFA40F250
:103CD0007814C2F200042046FEF782FA2046002142
:103CE000FEF766FFFEE75FEA400C08BF91F0000FA9
:103CF0004FEA8C234FEAC12243EA51514FEA1C504C
:103D000018BF00F5F0404FEA300018BF41F0004105
:103D10005FEA6C5C00F02980BCF1FF3F08BF40F017
:103D200080407047130C06BF12044FF0100C4FF088
:103D3000000C130E04BF12020CF1080C130F04BF89
:103D400012010CF1040C930F04BF92000CF1020C51
:103D5000D30F04BF52000CF1010C11464FF00002CA
:103D6000A0F11F00A0EB0C00704711F0004F08BF3E
:103D7000704731F000413FF4D5AF0B0C06BF09048A
:103D80004FF0100C4FF0000C0B0E04BF09020CF1A9
:103D9000080C0B0F04BF09010CF1040C8B0F04BFBE
:103DA00089000CF1020CCB0F04BF49000CF1010C8F
:103DB000CCF1200322FA03F341EA030102FA0CF2E8
:103DC000A0EB0C0000F101007047000023F07F47DA
:103DD00020F07F4C80EA030000F00040ACEB0703CA
:103DE00003F57C5303F1FF032DE9804909B44FEA41
:103DF000144324EA03484FEA154B25EA0B4E0FF211
:103E0000042606EB13273E7803FB0667C7F5000779
:103E100007FB06F64FEAD64606F102064FEA54378C
:103E200007FB066CCCF1005C4FEA1C472CEA074C00
:103E30000CFB06F507FB06F404EB15464FEA961655
:103E400049085FEA320234BF00204FF000404FEAD9
:103E5000D13706FB07FC4FEA1C4C0CFB0BF7D21BBF
:103E600003FB0CF761EB07010CFB0EF7B0EB07400F
:103E700072EB17420CFB08F734BFA2EB0742B2EB20
:103E8000074261EB17414FEA0C444FEA910706FBEA
:103E900007FC4FEA1C4C0CFB0BF7B0EBC74072EB76
:103EA000573203FB0CF734BFA2EBC742B2EBC74259
:103EB00061EB57310CFB0EF7B0EBC70072EB57729A
:103EC0000CFB08F734BFA2EBC702B2EBC70261EBF1
:103ED00057714FEA816141EA92114FEA826242EAE8
:103EE00090124FEA806004EBCC04039F4FEAD13775
:103EF00006FB07FC4FEA1C4C0CFB0BF7D21B03FB29
:103F00000CF761EB07010CFB0EF7B0EB074072EB0F
:103F100017420CFB08F734BFA2EB0742B2EB074293
:103F200061EB17414FEA8C5504EB9C244FEA910753
:103F300006FB07FC4FEA1C4C0CFB0BF7B0EBC74031
:103F400072EB573203FB0CF734BFA2EBC742B2EB64
:103F5000C74261EB57310CFB0EF7B0EBC70072EBB9
:103F600057720CFB08F734BFA2EBC702B2EBC702D3
:103F700061EB57714FEA816141EA92114FEA826227
:103F800042EA90124FEA806015EB4C2544F10004A0
:103F90004FEAD13706FB07FC4FEA1C4C0CFB0BF732
:103FA000D21B03FB0CF761EB07010CFB0EF7B0EB28
:103FB000074072EB17420CFB08F734BFA2EB074235
:103FC000B2EB074261EB17414FEA813141EA92417E
:103FD0004FEA823242EA90424FEA80304FEA0C7652
:103FE00015EB1C1544F1000448EA03434EEA0B4864
:103FF0004FF0000EB2EB080C71EB030724BF6246D2
:1040000039464EEB0E0E4FF0000B0018524149415D
:104010004BEB0B0BB2EB080C71EB03077BF1000BC6
:1040200024BF624639464EEB0E0E4FF0000B0018CF
:10403000524149414BEB0B0BB2EB080C71EB030700
:104040007BF1000B24BF624639464EEB0E0E51EA5F
:10405000020718BF46F0010616EB0E7655F1000276
:1040600054F1000103D5BDE88901BDE80088BDE831
:104070008901BDE80048B619524141EB0101A3F1A5
:104080000103704780807F7E7D7C7B7A79787776AC
:1040900076757473727171706F6E6E6D6C6C6B6A25
:1040A0006A696868676666656464636362616160C3
:1040B000605F5F5E5E5D5D5C5C5B5B5A5A59595840
:1040C00058575756565555555454535352525251AA
:1040D000515050504F4F4F4E4E4D4D4D4C4C4C4B00
:1040E0004B4B4A4A4A494949484848474747474647
:1040F0004646454545444444444343434342424283
:10410000424141419C46002B30D477002BD04FEAEE
:1041100037071CB503B44FF010004FF01001BAF18F
:10412000000F06D0BCF1000FDCBF40F0080040F0EB
:1041300008014FF000000FBCBDE810400BF1010B6F
:10414000BBF1010F08BF5FEA170722BF12F101029E
:1041500011F101014FF0004143F1000300F0004074
:1041600043EA00007047F9D35708D0E746EA06460D
:104170004FEA164613F1400F1FDD13F1200FDFBF8A
:1041800016430A46002120335B42BED0C3F120070C
:1041900046EA06464FEA164602FA07F746EA0706D7
:1041A00022FA03F2C3F1200701FA07F742EA0702F5
:1041B00021FA03F14FF00003A7E746EA020646EAB8
:1041C00006464FEA164646EA0106BCBF46EA0646E0
:1041D000360C4FF000034FF000024FF0000194E75F
:1041E0002DE9804C70B49A46934691E8380007C890
:1041F00031EA400C48BF34EA430C03D5FFF7E6FD33
:10420000FFF780FFF0BCBDE8008C2DE9804C70B456
:104210009A46934691E8380007C810F0804F08BFCF
:1042200013F0804F03D100F005F8FFF76BFFF0BCEF
:10423000BDE8008C20F07F4723F07F4C80EA03002C
:1042400000F0004007EB0C03A3F57C53A3F1FE0341
:1042500092F0000F00F0B38095F0000F00F077802F
:104260002DE901494FEA114021EA00484FEA14467E
:1042700024EA064700FB06FC08FB06F607FB08F8E5
:1042800018EB06484CEB164C00FB07F718EB0748F9
:104290004CEB17404FEA124B22EA0B4E4FEA154601
:1042A00025EA06470BFB06FC0EFB06F607FB0EFE97
:1042B0001EEB064E4CEB164C0BFB07F71EEB074EA6
:1042C0004CEB174B18EB0B0840F1000018EB0E0BF2
:1042D00058EB000840F100008F1A4FF000014FF03A
:1042E00000063CBFC943661B14BFB5EB040C00219C
:1042F0003CBFC943F61B4FEA174427EA04454FEA7F
:104300001C472CEA074C04FB076205FB07F70CFB74
:1043100005F616EB074642EB174204FB0CFC16EBC6
:104320000C4642EB1C421BEB060658EB02024141D5
:104330004EEA8E0E46EA9E0601D5BDE80189B61901
:10434000524141EB0101A3F10103BDE801894FEAAC
:10435000144524EA05464FEA114721EA074C05FBBC
:1043600007F406FB07F70CFB06F111EB074144EBE2
:10437000174405FB0CFC11EB0C4144EB1C444FEAC9
:10438000124722EA074C05FB07F206FB07F70CFB76
:1043900006F616EB074642EB174205FB0CFC16EB44
:1043A0000C4642EB1C456A1854F1000148BF7047A7
:1043B000B619524141EB0101A3F10103704795F099
:1043C000000F37D04FEA114221EA02464FEA144764
:1043D00024EA074C02FB07F106FB07F70CFB06F487
:1043E00014EB074441EB174102FB0CFC14EB0C44AB
:1043F00041EB1C414FEA154725EA074C02FB07F544
:1044000006FB07F70CFB06F616EB074645EB1745D0
:1044100002FB0CFC16EB0C4645EB1C42121951F149
:10442000000148BF7047B619524141EB0101A3F1A9
:10443000010370474FEA144524EA05464FEA114745
:1044400021EA074C05FB07F106FB07F70CFB06F218
:1044500012EB074241EB174105FB0CFC12EB0C423F
:1044600051EB1C414FF0000648BF7047921841EBDA
:104470000101A3F101037047490050EAC12018BFB0
:1044800004204A0D18BF40F0010040F2FF72B2EB69
:10449000515F08BF40F00200012808BF05207047A7
:1044A00030380A2801D201207047002070470000F0
:1044B00010B500290AD00878002807D005487844AC
:1044C000FCF7E2FA002801D0002010BD0248784431
:1044D00010BD00008E0700008607000021F000429A
:1044E00001F00043A2F16052B2F5801F28BFD2F163
:1044F0007F6C0BD95FEA001C43EAC20242EB5070AA
:1045000018BF704728BF20F001007047B2F5801F28
:10451000BCBF184670474FEA410C1CF5001F02D281
:10452000084600F013BB70B500F064F90000008984
:10453000FFF7F6BF4FF00040A0F580007047000085
:104540002DE9C04130B4DFF8A4C23CEA111418BF11
:104550003CEA131400F0ED801CEA111481EA030513
:1045600044EAD57418BF1CEA131500F0C880A4EB08
:10457000050404F17F7404F500344FF0004545EA6A
:10458000C12145EAC32341EA505143EA52534FEA5D
:10459000C0204FEAC222994208BF904200F09D809D
:1045A0004FEA13650FF24416765D4FEA134506FB9A
:1045B00005F7C7F1807706FB07F74FEAD737A7FB68
:1045C00003687642A7FB06CEC8F5803838BFA8F14D
:1045D000010807FB08E6A6FB028C4FF0000EE6FB85
:1045E00003CEDCF1000CCEF1004E38BFAEF1010E6F
:1045F000A6FB0C584FF00007E6FB0E87A1FB08C690
:10460000A0FB07CE16EB0E064FF0000545F10005A6
:10461000E1FB076515F1E04E7EBFA4F580345FEA4B
:1046200046066D4116F1800745F100054FEA172750
:1046300047EA05674FEA15254FEA0666A6F1DE460A
:10464000B6F1805F20D9384605EBC47124F0010C27
:1046500001EB0C11BCF1FE6F02D8F0BCBDE800818B
:1046600024425CBF01F5801E9EEAC47F02D4F0BCE8
:10467000BDE80081244200F13980A1F1C041F0BCC5
:10468000BDE8004100F004B94FEAD02040EA4150B3
:104690004FEAD1214FEAD22242EA43524FEAD323D2
:1046A000A7FB028607FB036605FB02661EEA0E0FE8
:1046B00058BFA6EB0056B6EB00564FEA520E4EEA34
:1046C000C37E18EB0E0E56EB530EBCD518EB02084A
:1046D0005E417F1C55F10005B5E74FF480154FF0A2
:1046E00000074FF000064FF00008ACE701F1C041B1
:1046F00001F000414FF00000F0BCBDE800810CEA81
:10470000131511EA0C1F00D00CE013EA0C1F00F087
:1047100026804FF0000081EA030101F00041F0BC67
:10472000BDE80081F0BCBDE8004181EA030100F072
:10473000AFB8F0BCBDE8004170B500F05BF800BF59
:10474000097EFC3E00F007B84FF0000081EA03014B
:1047500001F00041704781EA030100F099B8F0BC14
:10476000BDE8004122494FF000007047FFFDFBF912
:10477000F7F5F4F2F0EEEDEBE9E8E6E4E3E1E0DE94
:10478000DDDBDAD8D7D5D4D3D1D0CFCDCCCBCAC806
:10479000C7C6C5C4C2C1C0BFBEBDBCBBBAB9B8B72D
:1047A000B6B5B4B3B2B1B0AFAEADACABAAA9A8A820
:1047B000A7A6A5A4A3A3A2A1A09F9F9E9D9C9C9BEE
:1047C0009A99999897979695959493939291919099
:1047D0008F8F8E8E8D8C8C8B8B8A8989888887872A
:1047E0008685858484838382828181800000FF079F
:1047F0000000F87F0EF1020E2EF0030E5EF8046B3F
:10480000364205D4012A43EB030515F5001F12D8E3
:10481000012841EB010C1CF5001F0CD80ED14FEA0A
:10482000D17C0CEB4C0C0CF1020C15F5001F08BFF1
:104830004CEBD37C04E04FF0080C01E04FEAD37C52
:104840000CEB4C0526FA05F606F00706B6F1040C4B
:1048500006D20EEB860CBDE870404CF0010C6047B0
:10486000DFE80CF0090B02024FF00041A1F5002136
:104870004FF0000070BD19461046012851EB0104AD
:1048800018BFD4F5001484BF002001F0004170BDB2
:104890000808A0F500114FEA3101704743004FEAC4
:1048A000D30C4FEA3C0C43401FBF40070CF1605152
:1048B00013F0FE4F70471CF0006F03D10CF0004165
:1048C000002070470CF0004343EA507040EACC00EF
:1048D00010B500F0F5F800BF000000924FEA0001AB
:1048E000FFF7D6BF4FF00041A1F500214FF00000C7
:1048F000704710B500F034F80CBF0120002010BD47
:1049000010B500F02DF814BF0120002010BD10B527
:1049100000F06EF88CBF0120002010BD10B500F033
:1049200067F82CBF0120002010BD10B500F094F8EE
:1049300094BF0120002010BD10B500F08DF834BFE9
:104940000120002010BD401058BFC0F14040491068
:1049500058BFC1F140418142EFF300807047000031
:1049600050EA010C00F113801CF5000F58BFBCF594
:10497000000F01D48842704707D710F5000F58BFC9
:1049800011F5000F15D488427047894270471CF515
:10499000000F04D5BCF5000FF7D5814270474FF0EA
:1049A000807C1CEB400F38BF1CEB410F01D28142D1
:1049B000704710B500F084F8922449004FF0005081
:1049C0004FF08051FFF7BFBFB0FA80F310FA03F247
:1049D000C3F19D030AD0D90501EB1220530638BF5D
:1049E000704700F1010008BF20F00100704700008F
:1049F00050EA010C00F113801CF5000F58BFBCF504
:104A0000000F01D48842704707D710F5000F58BF38
:104A100011F5000F15D488427047894270471CF584
:104A2000000F04D5BCF5000FF7D5814270474FF059
:104A3000807C1CEB400F38BF1CEB410F01D2814240
:104A4000704710B500F03CF8922449004FF08050B8
:104A50004FF00051FFF777BF50EA010C00F11380CF
:104A60001CF5000F58BFBCF5000F01D488427047F9
:104A700007D710F5000F58BF11F5000F15D4884265
:104A80007047894270471CF5000F04D5BCF5000F34
:104A9000F7D5814270474FF0807C1CEB400F38BF48
:104AA0001CEB410F01D28142704710B500F008F8AD
:104AB000922449004FF000504FF08051FFF743BF60
:104AC0000EF1020E2EF0030E5EF8044B244204D4C5
:104AD0004FEA4102B2F17F4F11D84FEA4003B3F1E0
:104AE0007F4F0CD80ED14FEAD07C0CEB4C0C0CF164
:104AF000020CB2F17F4F08BF4CEBD17C04E04FF0C9
:104B0000080C01E04FEAD17C0CEB4C0324FA03F4CF
:104B100004F00704B4F1040C06D20EEB840CBDE8DB
:104B200010404CF0010C6047DFE80CF0070802026F
:104B30004FF00040A0F5800010BD0846420018BFAD
:104B4000D2F1807288BF00F0004010BDFF2141EA21
:104B5000D050C0057047FBF714BD040000080000EA
:104B600000000000000200010000100002400000F0
:104B7000000000A00000000005400000000000C888
:104B8000000000000C4000000000409C00000000FD
:104B9000194000000020BCBE0000000034400000AE
:104BA000BFC91B8E00000004B5400000504BCFD0A1
:104BB0006607E2CF010000006C4100003E8251AA6E
:104BC000DFEEA73401000000D9420000DCB5A0E20E
:104BD0003A301F97FFFFFFFFB4450000FD25A0C836
:104BE000E9A3C14FFFFFFFFFFF3F0000000000806F
:104BF00000000000FF3F00000000008000000000F7
:104C0000000000000000000001020304060708097C
:104C1000000000000102030401020203040506076C
:104C200008090A0B0C0D0E0F10100000684C00084C
:104C3000000000203000000028010008984C000807
:104C400030000020E0070000440100081C000000C4
:104C500043000000F8FFFFFF0C0000000E00000002
:104C60000F0000002E0000000100000010000000F6
:104C70000024F40054696D6520746F2057617465D9
:104C800072210A0000000000000000000000000087
:084C900000000000000000001C
:04000005080000ED02
:00000001FF
