:020000040800F2
:10000000B806002089010008390F0008310F0008E8
:10001000350F0008910200084D0F00080000000095
:10002000000000000000000000000000410F000878
:1000300095020008000000003D0F0008450F000871
:10004000A3010008A3010008A3010008A301000800
:10005000A3010008A3010008A3010008A3010008F0
:10006000A3010008A3010008A3010008A3010008E0
:10007000A3010008A3010008A3010008A3010008D0
:10008000A3010008A3010008A3010008A3010008C0
:10009000A3010008A3010008A3010008A3010008B0
:1000A000A3010008A3010008A3010008A3010008A0
:1000B000A3010008A301000800000000A30100083C
:1000C000A30100080000000000000000A3010008D8
:1000D00000000000A3010008A301000800000000C8
:1000E000A3010008A3010008A301000800F002F822
:1000F00000F03AF80AA090E8000C82448344AAF188
:100100000107DA4501D100F02FF8AFF2090EBAE885
:100110000F0013F0010F18BFFB1A43F0010318473B
:10012000A40F0000C40F0000103A24BF78C878C1A3
:10013000FAD8520724BF30C830C144BF04680C60ED
:10014000704700000023002400250026103A28BF35
:1001500078C1FBD8520728BF30C148BF0B60704739
:100160001FB51FBD10B510BD00F058F81146FFF7C0
:10017000F7FF00F0EDFE00F076F803B4FFF7F2FFB2
:1001800003BC00F07DF8000009488047094800479B
:10019000FEE7FEE7FEE7FEE7FEE7FEE7FEE7FEE737
:1001A000FEE7FEE704480549054A064B7047000094
:1001B000490F0008ED000008B8000020B806002034
:1001C000B8020020B80200204FF0000200B513462C
:1001D00094469646203922BFA0E80C50A0E80C5067
:1001E000B1F12001BFF4F7AF090728BFA0E80C5018
:1001F00048BF0CC05DF804EB890028BF40F8042B11
:1002000008BF704748BF20F8022B11F0804F18BF7D
:1002100000F8012B7047704770477047754600F033
:100220002BF8AE4605006946534620F00700854688
:1002300018B020B5FFF7B6FFBDE820404FF000062C
:100240004FF000074FF000084FF0000BAC46ACE851
:10025000C009ACE8C009ACE8C009ACE8C00921F0AD
:1002600007018D46704710B50446AFF30080204665
:10027000BDE81040FFF781BF004870471000002024
:1002800001491820ABBEFEE72600020070470000BF
:10029000FEE7000070470000B0B5044600F018F912
:1002A000054640F20400C2F200000078611C18BF4D
:1002B000044400BF00F00CF9401BA042FAD3B0BDCB
:1002C0002DE9F04F82B00E68002E00F0F18040F270
:1002D0000C4C40F2004E41F20002C4F2010CC4F298
:1002E000010EC4F201020327002401234FF0000B8A
:1002F0004FF00009904208BF0227009748E040F6FF
:100300000042C4F20102009F904208BF012704F09E
:100310000C030F229A402AEA020207FA03F34FEA7B
:100320009B051A4346F825204E68F203DEF80020AC
:1003300054BF22EA080242EA0802CEF80020DEF8A2
:100340000420B30354BF22EA080242EA0802CEF8AE
:100350000420F302DEF8082054BF22EA080242EA31
:100360000802B302CEF80820DCF800204FF00103A9
:1003700054BF22EA080242EA0802CCF800200E68C4
:100380000BF1010B36FA0BF204F1040400F090803B
:1003900003FA0BFA16EA0A08F1D04E684FF6FF721C
:1003A000C1F21002964211DC122E51D8DFE806F09D
:1003B000340A4246505050505050505050505050B7
:1003C00050494D00D1F80C9042E000BF4FF6FF724B
:1003D000C1F2210296420FDC0022C1F211029642C4
:1003E0001AD00022C1F21202964215D00022C1F2A8
:1003F0002102964210D02BE00022C1F22202964246
:100400000AD00022C1F23102964205D00022C1F288
:10041000320296421CD100BF8A6842B1012A14BF41
:10042000C0F814A0C0F810A04FF0080910E04FF079
:1004300004090DE0CA6802F1080909E04FF000095B
:1004400006E0CA6802F1040902E0CA6802F10C0978
:1004500022460646B8F5807F24BF203A0436376826
:100460000F25954027EA050509FA02F22A43326072
:10047000CA79D2067FF583AF41F21803C4F20203B2
:100480001A68AEF57E7642F001021A601A6802F030
:1004900001020192019A2BF0030256F802A040F6E5
:1004A0000002C4F2010290427FF429AF00272EE738
:1004B00002B0BDE8F08F00008068084018BF01203E
:1004C00070470000002A08BF09040161704700005E
:1004D00040F2B400C2F200000068704740F204002D
:1004E00040F2B401C2F20000C2F2000100780A68D2
:1004F000104408607047000080B542F20000C4F26A
:100500000200016841F010010160032000F076F85C
:100510000F2000F005F800F02BF8002080BD00004F
:10052000B0B540F20402C2F2000240F200011278BB
:10053000C2F200014FF47A730968B3FBF2F2044689
:10054000B1FBF2F1084600F007FB0F2C4FF001055C
:100550000CD858B94FF0FF3021460022002500F09A
:1005600021F840F20800C2F2000004602846B0BD45
:1005700082B041F21800C4F20200016841F00101AA
:100580000160016801F0010101910199416841F0A8
:1005900080514160406800F080500090009802B0A7
:1005A0007047000010B54EF60C5CCEF2000CDCF883
:1005B0000030C3F3022E8EF00704042C28BF04245D
:1005C000BEF103034FF0FF3E0EFA04F438BF0023E0
:1005D000A14399400EFA03F39A43114300F160429C
:1005E00000F00F03090102F56442043B6344002854
:1005F00048BF03F10C02117010BD00004EF60C5103
:10060000CEF200010A684FF6FF031A4060F30A2297
:1006100042F0806040F0FD70086070472DE9F043C3
:1006200081B0002800F0858042F20008C4F2020880
:100630000446D8F800000D4600F0070088420CD2AE
:10064000D8F8000020F007002843C8F80000D8F8C8
:10065000000000F00700A8426BD1206841F20409B5
:100660008107C4F2020917D5410705D5D9F8001052
:1006700041F4E061C9F80010010705D5D9F8001070
:1006800041F46051C9F80010D9F80010A26821F0B7
:10069000F0011143C9F80010C00741D1D8F800009B
:1006A00000F00700A8420CD9D8F8000020F007009D
:1006B0002843C8F80000D8F8000000F00700A8425E
:1006C00037D12068410707D5D9F80010E26821F436
:1006D000E0611143C9F80010000708D5D9F80000FF
:1006E000216920F4605040EAC100C9F80000D9F83F
:1006F000002002F00C00082841F20020C0F27A002D
:100700004ED141F2B403C2F38341C0F60003595CF9
:10071000D20339D440F60010C0F23D0048433FE018
:100720006068022809D0012829D159F8041C8903DE
:1007300007D4012001B0BDE8F08359F8041C8901F9
:10074000F7D5D9F8001021F003010843C9F80000DB
:10075000FFF7BEFE064641F2883700BFD9F8000019
:10076000616800F00C00B0EB810F97D0FFF7B0FE8E
:10077000801BB842F2D9032001B0BDE8F08359F8DC
:10078000041C8907D5D5DCE7D9F8002041F29A038B
:10079000C2F34042C0F600039A5C4843B0FBF2F05B
:1007A000D9F8001041F29C02C1F30311C0F6000217
:1007B000515C40F2000220FA01F140F20800C2F25E
:1007C00000000068C2F200021160FFF7A9FE0020DD
:1007D00001B0BDE8F083000040F2000041F20401E6
:1007E000C2F20000C4F202010068096841F2AC02E2
:1007F000C1F30221C0F60002515CC84070470000FE
:1008000040F2000041F20401C2F20000C4F2020111
:100810000068096841F2AC02C1F3C221C0F60002CF
:10082000515CC840704700002DE9F04182B00028BB
:1008300000F0D7800446007841F20006C007C4F2F9
:10084000020644D0706800F00C00042817D07068CD
:1008500000F00C00082802D17068C0030FD465684E
:100860002DB1B5F5A02F10D0B5F5803F11D030686F
:1008700020F480303060306820F480200CE0306854
:10088000800324D5606810BBABE0306840F4802062
:100890003060306840F480303060FFF719FE002D82
:1008A000054611D03068800311D4FFF711FE401BBC
:1008B0006428F7D916E100BFFFF70AFE401B642841
:1008C0004FF0030000F28A8030688003F4D420786F
:1008D000800718D5706810F00C0F07D0706800F012
:1008E0000C00082827D17068C00324D43068800722
:1008F00002D52069012874D13068616920F0F800C0
:1009000040EAC1003060207800074FD5A06940B3AD
:100910000020C4F242200121C0F88014FFF7D8FD66
:10092000054600BF706A80072DD4FFF7D1FD401B3C
:100930000228F7D9D6E02069002840F20000C4F26E
:10094000422000F0A68001210160FFF7C1FD0546AD
:1009500030688007D0D4FFF7BBFD401B0228F7D9D1
:10096000C0E00020C4F242200021C0F88014FFF74C
:10097000AFFD0546706A800718D5FFF7A9FD401B3B
:100980000228F7D9AEE040F20000C2F20000006891
:1009900044F6D351C1F26201A0FB0101480A019063
:1009A00000BF0198411E00280191F9D1207840072D
:1009B0001BD4E5698DB1706800F00C00082846D1A1
:1009C000012D0ED07068216A00F480328A4208D16D
:1009D000616A00F47010884203D1002002B0BDE8C3
:1009E000F081012002B0BDE8F081F06910F080587C
:1009F00008D1F06940F08050F061F06900F080505B
:100A00000090009847F20007C4F200073868C0055C
:100A10000FD4386840F480703860FFF759FD054600
:100A20003868C00505D4FFF753FD401B6428F7D98B
:100A300058E0E5681DB1052D3CD0012D3ED0306A4F
:100A400020F001003062306A20F0040039E0002715
:100A5000C4F2422700203866FFF73AFD022D054612
:100A60000CD100BF3068800154D5FFF731FD401B29
:100A700002284FF00300F5D9B0E700BF30688001CD
:100A8000ABD5FFF725FD401B02284FF00300F5D939
:100A9000A4E700210160FFF71BFD054630688007D1
:100AA0007FF531AFFFF714FD401B02284FF0030024
:100AB000F4D993E7306A40F004003062306A40F0C5
:100AC00001003062FFF704FD002D054641F2883732
:100AD00014D000BF306A800713D4FFF7F9FC401B25
:100AE000B842F7D9032002B0BDE8F081FFF7F0FC6F
:100AF000401BB8424FF003003FF670AF306A8007EA
:100B0000F4D4B8F1000F7FF454AFF06920F08050B6
:100B1000F0614EE7206AB0F5803F05D17168A268A8
:100B200021F40031114371607168626A21F474111B
:100B300011430843706001203866FFF7C9FC044682
:100B4000306880013FF549AFFFF7C2FC001B022867
:100B50004FF00300F4D941E7411E0020B0EB116FC4
:100B60001CBF012070474EF21002CEF2000251600D
:100B70004EF62351CEF20001F0230B700721906056
:100B800011607047002804BF0120704710B504466B
:100B900090F83D0028B9002084F83C00204600F081
:100BA00061F8242084F83D002068D4E90212C3686B
:100BB00023F40053C360036923F440531A430261D2
:100BC000D4E904231143C268194341F20C639A43E8
:100BD0001143C1604169A26921F44071114343F698
:100BE0000002C4F201029042416102D0FFF7F4FD1D
:100BF00001E0FFF705FE6268192148439100B0FB50
:100C0000F1F048F21F51C5F2EB11A0FB01235A0984
:100C10004FF69C73C0F6FF7302FB0300322303EB15
:100C20000010A0FB0101F02303EA5113206803EB3D
:100C30000212C1F3431111448160016921F4904112
:100C40000161416921F02A014161C16841F400510B
:100C5000C16000202021206484F83D1084F83E10FB
:100C600010BD000070B586B040F60004C4F2010467
:100C7000006804F54051002688420596CDE90366D8
:100C8000029601D006B070BD41F21800C4F2020015
:100C9000016802AD41F480410160016801F48041C6
:100CA00001910199016841F0040101600068294641
:100CB00000F00400019001984FF4007002900220AF
:100CC0000390032005902046FFF7FAFA4FF4806066
:100CD000CDE90206204629460496FFF7F1FA06B050
:100CE00070BD00002DE9F04381B0044690F83E004D
:100CF00020280BD10D4600294FF0010067D0174680
:100D0000002A64D094F83C00012803D1022001B0ED
:100D1000BDE8F083012084F83C00002022219846A1
:100D2000206484F83E102063FFF7D2FBA785E78597
:100D3000A1688146B1F5805F01D1206910B12E46CE
:100D4000002500E00026002084F83C00E08DD0B3B0
:100D500008F101070CE000BF2068002640686FF32F
:100D60005F2025F8020BE08D0138E085E08D50B35F
:100D700020680068800613D47FB1B8F1000F06D157
:100D800028E000BF016889060AD4002FFAD0FFF7D7
:100D90009FFBA0EB090040451CD82068F2E700BF8C
:100DA000002ED9D0A068B0F5805F07D008B92069BF
:100DB00020B12068406800F07F0001E020684068B2
:100DC00006F8010BCFE7202084F83E00002001B098
:100DD000BDE8F0832068C16821F4D071C160416929
:100DE00021F001014161202084F83D0084F83E009B
:100DF000002084F83C00032001B0BDE8F08300002F
:100E00002DE9F04381B0044690F83D0020280DD133
:100E10000D4600294FF0010000F086801646002A9A
:100E200000F0828094F83C00012803D1022001B038
:100E3000BDE8F083012084F83C00002020642120DC
:100E4000984684F83D00FFF743FBA684E684A1683A
:100E50008146B1F5805F01D1206910B12F46002590
:100E600000E00027002084F83C00E08C58B308F133
:100E7000010609E097B117F8010B21684860E08C82
:100E80000138E084E08CF0B1206800680006F1D4FD
:100E9000BEB1B8F1000F0ED120E000BF35F8020B53
:100EA00021686FF35F2048600027E8E701680906C2
:100EB000E0D4002EFAD0FFF70BFBA0EB0900404571
:100EC0000CD82068F2E720680068400628D4B8F102
:100ED000000F03D018F1010515D01AE02068C16891
:100EE00021F4D071C160416921F0010141612020EC
:100EF00084F83D0084F83E00002084F83C00032084
:100F000001B0BDE8F08320680168490608D4002DCF
:100F1000FAD0FFF7DDFAA0EB09004045F3D9DDE791
:100F2000202084F83D00002001B0BDE8F0830000DF
:100F3000FEE70000FEE70000FEE70000704700004B
:100F400070470000FFF7CABA70470000FEE70000D4
:100F500090B0FFF7D1FA06AC20462821FFF734F90C
:100F60000220069001200A90102000250B902046B8
:100F70000595CDE90355CDE901550D95FFF754FCD5
:100F800018B1EFF3108072B6FEE70F20CDE901052E
:100F900001A80021CDE903550595FFF73FFB20B1DE
:100FA000EFF3108072B600BFFEE7002541F2180093
:100FB000CDE90855CDE90655C4F20200016840F6B6
:100FC000000441F0040101600068C4F2010400F073
:100FD0000400019001982046062100220626FFF712
:100FE00071FA0120CDE907050220099006A92046E3
:100FF0000696FFF765F940F2700004F54051C2F221
:1010000000000C234FF4165280E82600C0E9035577
:10101000C0E90535C561FFF7B5FD20B1EFF31080DC
:1010200072B600BFFEE740F27005C2F2000506AEE0
:101030000FE0204604210122FFF744FA4FF4FA7032
:10104000FFF72AF92846314601224FF0FF33FFF718
:1010500049FE2846314601224FF0FF33FFF7D0FE0C
:101060009DF8180072280BD06728E7D1204602218E
:10107000FFF722FA01280DD1204602210022DBE7EA
:1010800020460421FFF718FA0128D2D12046042176
:101090000022D1E720460221CDE701020000000036
:1010A0000000000001020304060708090000000018
:1010B0000102030402030405060708090A0B0C0DCC
:1010C0000E0F1010E81000080000002010000000B3
:1010D00028010008F810000810000020A8060000F1
:1010E00044010008000000000024F400010000009A
:0810F0001000000000000000E8
:04000005080000ED02
:00000001FF
