:020000040800F2
:10000000C0060020ED0100081118000809180008BA
:100010000D180008E50300083D1800080000000066
:100020000000000000000000000000001918000897
:10003000E903000800000000151800081D1800085A
:10004000070200080702000807020008070200086C
:10005000070200080702000807020008070200085C
:10006000070200080702000807020008070200084C
:10007000070200080702000807020008070200083C
:10008000070200080702000807020008070200082C
:10009000070200080702000807020008070200081C
:1000A0000702000831180008070200082518000898
:1000B00007020008070200080702000807020008FC
:1000C00007020008070200080702000807020008EC
:1000D00007020008070200080702000807020008DC
:1000E00007020008070200080702000800000000DD
:1000F0000000000000000000000000000000000000
:1001000000000000000000000702000807020008CD
:10011000070200080702000807020008070200089B
:10012000070200080702000807020008070200088B
:10013000070200080702000807020008070200087B
:10014000070200080702000807020008070200086B
:1001500000F002F800F03AF80AA090E8000C82449F
:100160008344AAF10107DA4501D100F02FF8AFF27C
:10017000090EBAE80F0013F0010F18BFFB1A43F085
:1001800001031847B0180000D0180000103A24BF2F
:1001900078C878C1FAD8520724BF30C830C144BFEC
:1001A00004680C607047000000230024002500262E
:1001B000103A28BF78C1FBD8520728BF30C148BFCA
:1001C0000B6070471FB51FBD10B510BD00F0D0F813
:1001D0001146FFF7F7FF01F033FB00F0EEF803B430
:1001E000FFF7F2FF03BC00F0F5F800000948804774
:1001F00009480047FEE7FEE7FEE7FEE7FEE7FEE709
:10020000FEE7FEE7FEE7FEE704480549054A064B20
:10021000704700002118000851010008C0000020AC
:10022000C0060020C0020020C002002053EA020CD9
:1002300000F069802DE9F04B4FF00006002B1FBF46
:10024000B3FA83F503FA05F424FA05F65E4012BF0B
:100250001643B2FA82F502FA05F4C5F120051EBF75
:1002600022FA05FC44EA0C04203556EA044C4FEA15
:10027000144418BF641C4FF000084FF0000990426E
:1002800071EB030C39D3002919BFB1FA81F701FAD8
:1002900007F6B0FA80F700FA07F6C7F120071EBF8D
:1002A00020FA07FC46EA0C062037B6FBF4FCA7EB65
:1002B0000507103F07F01F0BCBF120062CFA06F6BE
:1002C0000CFA0BFB44BFB3460026202FA4BF5E46AA
:1002D0004FF0000B5BEA060C08BF4FF0010B19EB67
:1002E0000B0948EB0608ABFB027C06FB02CC0BFBC0
:1002F00003CCC01B71EB0C01C1E70B460246414623
:100300004846BDE8F08B13B5084318BF4FF0FF30E7
:100310000146AFF30080BDE81C4070474FF000027B
:1003200000B5134694469646203922BFA0E80C50EB
:10033000A0E80C50B1F12001BFF4F7AF090728BFC6
:10034000A0E80C5048BF0CC05DF804EB890028BF42
:1003500040F8042B08BF704748BF20F8022B11F06B
:10036000804F18BF00F8012B7047704770477047E7
:10037000754600F02BF8AE4605006946534620F05E
:100380000700854618B020B5FFF73EFFBDE82040C6
:100390004FF000064FF000074FF000084FF0000B41
:1003A000AC46ACE8C009ACE8C009ACE8C009ACE8B0
:1003B000C00921F007018D46704710B50446AFF320
:1003C00000802046BDE81040FFF709BF0048704795
:1003D0001000002001491820ABBEFEE726000200F5
:1003E00070470000FEE70000704700002DE9F04F65
:1003F00082B00E68002E00F0038141F20042C4F288
:100400000102042340F2004E904208BF03234FF63E
:10041000FF7CC4F2010E009300240123C1F2100CF2
:100420004FF0000A4FF0000949E000BF012704F037
:100430000C030F229A402BEA020207FA03F34FEA59
:100440009A051A4346F82520D1F804B040F20C452D
:100450005FEACB22DEF8082054BF22EA080242EA13
:100460000802C4F20105CEF808202A685FEA8B234F
:1004700054BF22EA080242EA08022A605FEA8B338C
:10048000DEF8042054BF22EA080242EA08025FEACA
:10049000CB33CEF80420DEF800204FF0010354BF28
:1004A00022EA080242EA0802CEF800200E680AF1A9
:1004B000010A36FA0AF204F1040400F0A18003FAFA
:1004C0000AF816EA080FF1D04E68664512DC122EC3
:1004D00056D8DFE806F0350B454955555555555565
:1004E000555555555555554D510000BFD1F80C90F7
:1004F00046E000BF4FF6FF72C1F2210296420FDCC8
:100500000022C1F2110296421AD00022C1F2120258
:10051000964215D00022C1F22102964210D02FE05F
:100520000022C1F2220296420AD00022C1F2310218
:10053000964205D00022C1F23202964220D100BF7D
:100540008A684AB1012A14BFC0F81480C0F810802C
:100550004FF0080914E000BF4FF0040910E000BF9D
:10056000CA6802F108090BE04FF0000908E000BF7B
:10057000CA6802F1040903E0CA6802F10C0900BF6D
:1005800022460646BAF1080F24BF203A04363768DF
:100590000F25954027EA050509FA02F22A43326041
:1005A000CA79D2067FF582AF41F21803C4F2020382
:1005B0001A68AEF57E7642F001021A601A6802F0FF
:1005C00001020192019A2AF0030256F802B040F6A5
:1005D0000002C4F20102904210D040F60042C4F280
:1005E000010290423FF422AF41F20002C4F2010244
:1005F000009F904208BF022719E700BF002716E7B7
:1006000002B0BDE8F08F0000C26802EA0103914326
:1006100041EA034101617047002A08BF09040161F2
:100620007047000040F2B800C2F200000068704756
:1006300040F2000040F2B801C2F20000C2F2000134
:1006400000780A68104408607047000080B542F2E4
:100650000000C4F20200016841F0100101600320B3
:1006600000F086F80F2000F005F800F027F80020D1
:1006700080BD000070B540F20006C2F2000640F2F4
:1006800008013278C2F200014FF47A730968B3FBB3
:10069000F2F20446B1FBF2F1084600F0CBFB0F2C5E
:1006A0004FF0010508D838B94FF0FF30214600223D
:1006B000002500F031F87460284670BD82B041F228
:1006C0001800C4F20200016841F0010101600168F4
:1006D00001F0010101910199416841F080514160AF
:1006E000406800F080500090009802B07047000011
:1006F000002848BF7047C1B200F01F00012202FA73
:1007000000F04EF20012CEF2000242EAD10121F0D6
:10071000030108607047000010B54EF60C5CCEF285
:10072000000CDCF80030C3F3022E8EF00704042C1A
:1007300028BF0424BEF103034FF0FF3E0EFA04F479
:1007400038BF0023A14399400EFA03F39A431143A3
:1007500000F00F0200F160430901043A03F564431D
:100760006244002848BF02F10C03197010BD00005C
:100770004EF60C51CEF200010A684FF6FF031A4004
:1007800060F30A2242F0806040F0FD70086070471C
:100790002DE9F04381B0002800F0858042F2000886
:1007A000C4F202080446D8F800000D4600F0070025
:1007B00088420CD2D8F8000020F007002843C8F87F
:1007C0000000D8F8000000F00700A8426BD12068B4
:1007D00041F204098107C4F2020917D5410705D582
:1007E000D9F8001041F4E061C9F80010010705D5FF
:1007F000D9F8001041F46051C9F80010D9F8001080
:10080000A26821F0F0011143C9F80010C00741D1DE
:10081000D8F8000000F00700A8420CD9D8F8000072
:1008200020F007002843C8F80000D8F8000000F0C6
:100830000700A84237D12068410707D5D9F8001032
:10084000E26821F4E0611143C9F80010000708D5FF
:10085000D9F80000216920F4605040EAC100C9F8CD
:100860000000D9F8002002F00C00082841F2002016
:10087000C0F27A0071D141F6F611C2F38344C0F69A
:100880000001095DD2033BD440F60010C0F23D00E8
:10089000484362E0606802280AD001282AD159F84A
:1008A000041C890308D4012001B0BDE8F08300BF17
:1008B00059F8041C8901F6D5D9F8001021F003017C
:1008C0000843C9F80000FFF7ADFE064641F288373D
:1008D000D9F80000616800F00C00B0EB810F97D0F0
:1008E000FFF7A0FE801BB842F2D9032001B0BDE89B
:1008F000F08300BF59F8041C8907D4D5DCE700BF9A
:10090000D9F8282041F6242302F00F02C0F6000394
:10091000D9F828709A5CFB0304D44843B0FBF2F08A
:1009200015E000BFD9F82830D9F8287042F2004607
:10093000C7F30327C0F2F406C3F3031307FB0060F9
:100940000133A0FB0101A3FB0223FFF76FFCA4F11D
:100950000D01B1FA81F14909C840D9F8001041F6FA
:10096000E612C1F30311C0F60002515C40F2080226
:1009700020FA01F140F20400C2F200000068C2F265
:1009800000021160FFF776FE002001B0BDE8F083A1
:100990002DE9F04182B0002800F0FE810446007885
:1009A00041F20006C007C4F202060CD0706800F0E5
:1009B0000C00042840F09E803068800303D5A068B6
:1009C000002800F0E981207880071BD5706810F0BE
:1009D0000C0F09D0706800F00C00082840F0A880C7
:1009E0007068C00300F1A4803068800703D5606997
:1009F000012840F0D1813068A16920F0F80040EA78
:100A0000C10030602078000736D4207840074BD4EE
:100A1000E06A002800F0A8817168C90308D57168F0
:100A200001F00C01082903D1F16AC90300F1B48176
:100A3000022840F0E5803068C00006D5F06A616B9E
:100A400000F0F000884240F0A7816827C4F24227F6
:100A500000203860FFF7E6FD054600BF3068000162
:100A600040F16481FFF7DEFD401B64284FF0030076
:100A7000F4D902B0BDE8F081E069002800F082807E
:100A80006820C4F242200121C0F81814FFF7CAFD03
:100A9000054600BF706A800700F18880FFF7C2FD3D
:100AA000401B0228F6D93CE1F06910F0805808D1CB
:100AB000F06940F08050F061F06900F080500090E3
:100AC000009847F20007C4F200073868C00547D411
:100AD000386840F480703860FFF7A4FD054600BF19
:100AE0003868C0053CD4FFF79DFD401B6428F7D94A
:100AF00017E100BF706800F00C00082803D170688F
:100B0000C0033FF559AFA068002800F0DD80B0F5C4
:100B1000A02F00F0F180B0F5803F00F0F180306848
:100B200020F480303060306820F48020EBE000BF9B
:100B30006069002840F26800C4F2422076D00121AA
:100B400040F8681CFFF76EFD054600BF306880075F
:100B50003FF551AFFFF766FD401B0228F6D9E0E0F4
:100B60002069002874D0052800F08C80012800F04E
:100B70008D80306A20F001003062306A20F004007D
:100B800087E000BF6820C4F242200021C0F818149A
:100B9000FFF748FD054600BF706A80077FF535AF57
:100BA000FFF740FD401B0228F6D9BAE040F20800EA
:100BB000C2F20000006844F6D351C1F26201A0FB0A
:100BC0000101480A019000BF00BF0198411E0028A2
:100BD00001913FF41AAF00BF0198411E0028019116
:100BE0003FF413AF00BF0198411E002801913FF46C
:100BF0000CAF00BF0198411E00280191E4D104E729
:100C0000F06A002120F48030F0626820C4F24220B3
:100C10000160FFF707FD05463068000140F1A48040
:100C2000FFF700FD401B6428F6D97AE0002140F868
:100C3000681CFFF7F7FC0546306880077FF5E2AED9
:100C4000FFF7F0FC401B02284FF00300F4D910E737
:100C5000306A20F001003062306A20F00400306217
:100C6000FFF7E0FC054641F2883700BF306A800795
:100C700020D5FFF7D7FC401BB8424FF00300F5D951
:100C8000F7E600BF306A40F004003062306A40F09E
:100C900001003062FFF7C6FC054641F2883700BF0D
:100CA000306A800706D4FFF7BDFC401BB842F7D975
:100CB00037E000BFB8F1000F7FF4AAAEF06920F072
:100CC0008050F061A4E600BF306820F480303060CE
:100CD000306820F480203060FFF7A4FC054600BF98
:100CE000306880037FF56FAEFFF79CFC401B6428E3
:100CF0004FF00300F4D9BCE6306840F48020306047
:100D0000306840F480303060FFF78CFC054600BF4F
:100D1000306880033FF557AEFFF784FC401B642822
:100D2000F6D9032002B0BDE8F08100BFF06AD4E933
:100D30000C2120F0F0000843F062F06A20F47060AB
:100D40001043F06201203860FFF76CFC054600BFDD
:100D50003068000108D4FFF765FC401B64284FF0A1
:100D60000300F5D985E600BF256A8DB1706800F0F3
:100D70000C00082814D1012D0ED07068616A00F4AF
:100D800080328A4208D1A16A00F47010884203D1EF
:100D9000002002B0BDE8F081012002B0BDE8F08182
:100DA0006827C4F24227002047F8080CFFF73AFCF6
:100DB000022D05460CD100BF3068800114D5FFF725
:100DC00031FC401B02284FF00300F5D951E600BF6B
:100DD00030688001DCD5FFF725FC401B02284FF06E
:100DE0000300F5D945E600BF606AB0F5803F09D140
:100DF000F16A6268E3681143F162F16A21F00F0160
:100E00001943F1627168A26A21F474111143084315
:100E10007060012047F8080CFFF704FC04463068B6
:100E20008001B5D4FFF7FEFB001B02284FF0030042
:100E3000F5D91EE6411E0020B0EB116F1CBF01204A
:100E400070474EF21002CEF2000251604EF623516E
:100E5000CEF20001F0230B70072190601160704703
:100E60007047000070470000B0B590F83C20012AA0
:100E700004BF0220B0BD01F108053CCDD1E900CE90
:100E800023F47C5322F470521A432EF4F0431A4395
:100E90002CF4E0431A4324F4C0431A432A43C9699B
:100EA00022F48042036811435964002180F83C1009
:100EB0000846B0BD10B590F83C20012A4FF0020260
:100EC00038D080F83D200268D2F804E0D2F808C09B
:100ED0000C682EF07003234340F2FF74C4F2000448
:100EE000A242536012DD40F60003C4F200039A42AE
:100EF00015D042F60043C4F201039A420FD040F6E7
:100F00000043C4F200039A4209D00DE0B2F1804FD1
:100F100005D040F20043C4F200039A4204D149686C
:100F20002CF08003194391600121002280F83D10CC
:100F300080F83C20104610BD002804BF01207047F7
:100F400010B5044690F83D0028B9002084F83C0014
:100F5000204600F06FF8022084F83D00206840F23F
:100F6000FF7142F6004C0268C4F2000140F6000E28
:100F7000C4F2010C8842C4F2000E17DD70451ED089
:100F800060451CD040F60043C4F20003984216D0DE
:100F900088421ADD704521D060451FD040F60041DF
:100FA000C4F20001884219D01CE000BFB0F1804FAC
:100FB00005D040F20043C4F200039842E8D1A36890
:100FC00022F070021A438842E4DCB0F1804F05D071
:100FD00040F20041C4F20001884203D1216922F4A9
:100FE00040720A43A36922F08001D4F804E0E26869
:100FF000194360450160C262C0F828E002D161690E
:10100000CCF8301001214161002084F8461084F8AA
:101010003E1084F83F1084F8401084F8411084F8A2
:10102000421084F8431084F8441084F8451084F882
:101030003D1010BD80B582B0006842F60041C4F298
:10104000010188421CBF02B080BD41F21800C4F209
:1010500002000168002241F4006101600068002183
:1010600000F40060019001981920FFF755FB19204A
:10107000FFF73EFB1B2000210022FFF74DFB1B204A
:1010800002B0BDE88040FFF733BB000090F83D1090
:1010900001291CBF01207047022180F83D10006823
:1010A00040F2FF72C168C4F20002904241F00101B7
:1010B000C16013DD40F60001C4F20001884216D081
:1010C00042F60041C4F20101884210D040F60041CE
:1010D000C4F2000188420AD010E000BFB0F1804F96
:1010E00005D040F20041C4F20001884206D1816877
:1010F00001F00701062904BF00207047016841F094
:10110000010101600020704780B590F83C20012A61
:101110004FF0020200F0C28080F83D20D0F800C0FD
:101120004FF67772DCF8083023EA0202CCF8082088
:101130000B684F2B28DC1F2B44DD202B45D0302B98
:1011400043D0402B40F0AC80D1F804E0C968DCF813
:101150002030DCF8202022F00102CCF82020DCF83E
:10116000182022F0F00242EA011123F00A0242EABA
:101170000E02CCF81810CCF82020DCF8081041F052
:10118000470121F0300180E06F2B27DDB3F5005FD0
:1011900048D0B3F5805F7AD0702B40F08180D1E9E0
:1011A00001E3C968DCF8082043EA0E0322F47F4219
:1011B00043EA01211143CCF80810DCF8081041F093
:1011C000770162E00BB1102B6AD1DCF8081021F036
:1011D0007001194341F0070157E000BF502B35D093
:1011E000602B5DD1D1F804E0C968DCF82030DCF870
:1011F000202022F01002CCF82020DCF8182022F465
:10120000704242EA013123F0A00242EA0E12CCF809
:101210001810CCF82020DCF8081041F0670121F00C
:10122000100132E0D1E901E3C968DCF8082043EAA3
:101230000E0322F47F4243EA01211143CCF8081047
:10124000DCF8081041F480411FE000BFD1F804E051
:10125000C968DCF82030DCF8202022F00102CCF84C
:101260002020DCF8182022F0F00242EA011123F0DD
:101270000A0242EA0E02CCF81810CCF82020DCF862
:10128000081041F0570121F02001CCF8081000228D
:10129000012180F83D10002180F83C10104680BDEF
:1012A0000122F5E77047000010B50168044608699F
:1012B000800744BFC8685FEA807039D40869400776
:1012C00044BFC8685FEA40703ED40869000744BF65
:1012D000C8685FEA007045D40869C00644BFC868A2
:1012E0005FEAC0604AD40869C0071CBFC8685FEAEB
:1012F000C07051D10869000644BFC8685FEA006049
:1013000052D40869400644BFC8685FEA406053D4BD
:101310000869800646BFC8685FEA806010BD6FF04C
:10132000200220460A61BDE81040FFF79BBD00BFC8
:101330006FF002000861012020778869800743D0A0
:101340002046FFF7AFFF45E06FF004000861022080
:101350002077886910F4407F40D02046FFF7A2FF35
:1013600042E000BF6FF00800086104202077C869E0
:1013700080073DD02046FFF795FF3FE06FF010005B
:10138000086108202077C86910F4407F3AD02046D1
:10139000FFF788FF3CE000BF6FF0010008612046C6
:1013A00000F028FA2168A5E76FF080000861204668
:1013B000FFF756FD2168A4E76FF040000861204662
:1013C00000F020FA2168A3E7204600F0F7F8204655
:1013D00000F00EFA2168002020776FE7204600F029
:1013E000EDF8204600F004FA2168002020776CE731
:1013F000204600F0E3F8204600F0FAF921680020CA
:10140000207769E7204600F0D9F8204600F0F0F98F
:1014100021680020207766E72DE9F04190F83C3004
:10142000012B04BF0220BDE8F0814FEAB202032A7B
:1014300030D8DFE802F00337679700BF026842F652
:101440000045146A136AC4F2010523F00103136214
:101450005368D2F818C0AA428D68D1F800E024F091
:10146000020444EA05040BD1CD68D1E9056723F4F1
:10147000407324F00C0425F0040533432C433B4314
:101480002CF0730747EA0E07536097614968516370
:1014900014628BE00121002280F83C200846BDE860
:1014A000F08100BF026842F60045146A136AC4F274
:1014B000010523F0100313625368D2F818C0AA4242
:1014C0008D68D1F800E024F0200444EA05140FD11F
:1014D000CD68D1E905876FF0400624F0C00406EA24
:1014E00005152C4323F4406348EA070543EA8503C6
:1014F0002CF4E64747EA0E275360976149689163E9
:10150000146253E0026842F60045146A136AC4F29A
:10151000010523F4807313625368D2F81CC0AA42F9
:101520008D68D1F800E024F4007444EA05240FD15A
:10153000CD68D1E905872D0240F2FF4624F44064CE
:10154000B5432C4323F4405348EA070543EA051307
:101550002CF0730747EA0E075360D7614968D163DF
:10156000146223E0026842F60046D2F820C0136AF3
:10157000C4F2010623F4805313625368D4690D68E2
:10158000D1F808E0B24204D14E6923F4804343EA23
:10159000861324F4E64646EA05265360D6612CF409
:1015A0000057496847EA0E33116413620021002294
:1015B00080F83C200846BDE8F081000040F600407D
:1015C000C4F201000421FFF71FB80000002804BF87
:1015D0000120704710B5044690F83D0028B900205E
:1015E00084F83C00204600F06FF8022084F83D00AB
:1015F000206840F2FF7142F6004C0268C4F200011C
:1016000040F6000EC4F2010C8842C4F2000E17DD51
:1016100070451ED060451CD040F60043C4F2000364
:10162000984216D088421ADD704521D060451FD0FF
:1016300040F60041C4F20001884219D01CE000BF0E
:10164000B0F1804F05D040F20043C4F2000398424D
:10165000E8D1A36822F070021A438842E4DCB0F1BA
:10166000804F05D040F20041C4F20001884203D10E
:10167000216922F440720A43A36922F08001D4F860
:1016800004E0E268194360450160C262C0F828E0E6
:1016900002D16169CCF8301001214161002084F849
:1016A000461084F83E1084F83F1084F8401084F807
:1016B000411084F8421084F8431084F8441084F8F0
:1016C000451084F83D1010BD7047000041B1082955
:1016D00016D0042914BF00F1410200F13F0211E0CD
:1016E00090F83E20012A1CBF01207047022280F89A
:1016F0003E204FEAB103032B4FF0010216D81FE042
:1017000000F140021278012A1CBF0120704702221A
:1017100008290DD0042914BF80F8412080F83F200B
:101720004FEAB103032B4FF0010209D9104670476D
:1017300080F840204FEAB103032B4FF00102F5D8A7
:1017400041F6042C0068C0F6000C5CF823C0C368A6
:1017500001F01F0143EA0C03C360036A8A4023EAD5
:1017600002010162036A42F64441C4F201011A43D4
:10177000A1F144039842026218D040F2FF71C4F212
:10178000000188421CDD40F60001C4F200018842DD
:101790001FD042F60041C4F20101884219D040F640
:1017A0000041C4F20001884213D019E00A6842F4F3
:1017B00000420A6040F2FF71C4F200018842E2DC9C
:1017C000B0F1804F05D040F20041C4F200018842E0
:1017D00006D1816801F00701062904BF0020704787
:1017E0000168002241F001010160104670470000CD
:1017F0007047000040F60040C4F201000221FEF7ED
:1018000003BF000070470000FEE70000FEE7000095
:10181000FEE700007047000070470000FEF708BFB9
:101820007047000040F27000C2F20000FFF73CBDBC
:1018300040F27000C2F20000FFF736BDFEE7000084
:101840009CB0FEF703FF01AC201D3421FEF766FDBE
:1018500002200190012006901020079000252046CC
:1018600009950C95FFF794F820B1EFF3108072B64C
:10187000FEE700BF0F20CDE90F050FA80021CDE93D
:1018800011551395FEF784FF20B1EFF3108072B667
:10189000FEE700BF7020C4F242200126066041F23C
:1018A0001800C4F20200016840F6004441F008014B
:1018B00001600068C4F2010400F008000190019882
:1018C00020460621002206270025FEF7A5FE02205D
:1018D000049001A92046CDE901760395FEF786FD27
:1018E00040F2700004F50051C2F200004FF6FF1301
:1018F0001B95CDE91955CDE9165507957C2280E851
:101900002600C0E90335C0E90555FFF715FB28B1EE
:10191000EFF3108072B600BFFEE700BF4FF48050B7
:10192000189040F27000C2F2000018A9FFF7ECFB1B
:1019300020B1EFF3108072B6FEE700BF40F27000F6
:10194000C2F20000FFF742FE20B1EFF3108072B642
:10195000FEE700BF40F27000C2F2000016A9FFF7D8
:10196000A9FA28B1EFF3108072B600BFFEE700BFFE
:1019700000244FF4FA40CDE9100440F27000C2F2A6
:1019800000000FA900220F94CDE91244CDE91444C0
:10199000FFF742FD20B1EFF3108072B6FEE700BF03
:1019A0004FF40050069040F27000C2F2000001A90E
:1019B0000594CDE90344CDE901440894FFF754FAB6
:1019C00020B1EFF3108072B6FEE700BF40F2700462
:1019D000C2F2000420460021FFF778FE2046FFF700
:1019E00055FB00BFFEE70000000000000000010200
:1019F000030406070809000004050607080900009B
:101A00000000000D020000000400000008000000BB
:101A100010000000FDFFFFFFFBFFFFFFF7FFFFFFD0
:101A2000EFFFFFFF0102030405060708090A0B0C7C
:101A30000D0E0F10581A00080000002010000000C2
:101A40008C010008681A000810000020B006000091
:101A5000A8010008000000000100000010000000C4
:081A60000024F4000000000066
:04000005080001519D
:00000001FF
