:020000040800F2
:1000000078070020910100087B1900089F1500085F
:10001000791900088F040008491D0008000000003D
:100020000000000000000000000000007F19000830
:10003000B9050008000000007D19000881190008BA
:10004000AB010008AB010008AB010008AB010008E0
:10005000AB010008AB010008AB010008AB010008D0
:10006000AB010008AB010008AB010008AB010008C0
:10007000AB010008AB010008AB010008AB010008B0
:10008000AB010008AB010008AB010008AB010008A0
:10009000AB010008AB010008AB010008AB01000890
:1000A000AB010008AB010008AB010008AB01000880
:1000B000E5190008AB01000800000000AB010008D2
:1000C000AB0100080000000000000000AB010008C8
:1000D00000000000AB010008AB01000800000000B8
:1000E000AB010008AB010008AB01000800F002F80A
:1000F00000F03FF80AA090E8000C82448344AAF183
:100100000107DA4501D100F034F8AFF2090EBAE880
:100110000F0013F0010F18BFFB1A43F0010318473B
:100120006C1F00008C1F0000103A24BF78C878C1F3
:10013000FAD8520724BF30C830C144BF04680C60ED
:10014000704700000023002400250026103A28BF35
:1001500078C1FBD8520728BF30C148BF0B60704739
:10016000642900F07D80002070471FB51FBD10B5C9
:1001700010BD00F052F91146FFF7F7FF01F010FE35
:1001800000F070F903B4FFF7F2FF03BC00F078F958
:100190000948804709480047FEE7FEE7FEE7FEE71B
:1001A000FEE7FEE7FEE7FEE7FEE7FEE70448054957
:1001B000054A064B70470000E3190008ED000008EF
:1001C00078010020780700207803002078030020C1
:1001D0000FB41CB5074B06AA7B44694600900598EE
:1001E00000F003F90020694600F012F91CBC5DF82C
:1001F00014FB0000350200002DE9F0410E460446D4
:10020000002020622046E168884730B3252805D0C9
:10021000D4E901219047206A401CF2E7E1682046BA
:1002200000278847050018D0A5F14100192802D8F9
:1002300020354FF400673246294620462760FFF7F5
:100240008FFF40B1012804D0F61D26F007060836BE
:10025000D8E7361DD6E72846DAE7206ABDE8F08100
:100260002DE9F0410646002410687529314616A58F
:1002700010D0AFF30080002802DA404213A507E057
:1002800031688A0701D512A502E0490704D511A5F6
:10029000012401E0AFF3008000210A2206F12407C7
:1002A00009E0B0FBF2FCB0FBF2F302FB1C003030C3
:1002B00078541846491C0028F3D123462A46304674
:1002C000BDE8F04100F032B8000000002D00000051
:1002D0002B000000200000004FF0000200B5134684
:1002E00094469646203922BFA0E80C50A0E80C5056
:1002F000B1F12001BFF4F7AF090728BFA0E80C5007
:1003000048BF0CC05DF804EB890028BF40F8042BFF
:1003100008BF704748BF20F8022B11F0804F18BF6C
:1003200000F8012B70477047704770472DE9F04780
:100330000D4699469246044600F124080168880655
:1003400004D5E06921F01001216000E00120A842FD
:1003500001DD471B00E00027A1697A1902EB0900C3
:10036000081AA0612078C00602D42046AFF30080AE
:10037000002608E0D4E901211AF806009047206A17
:10038000401C761C20624E45F4DB2078C0060AD55E
:100390002046AFF3008006E0D4E9012130209047E9
:1003A000206A401C2062381EA7F10107F4DC07E038
:1003B000D4E9012118F805009047206A401C20620A
:1003C000281EA5F10105F3DC2046AFF3008020785C
:1003D000000602D50220BDE8F0870120FBE70000FF
:1003E00001694A1C02610878704700B58FB0CDE9F9
:1003F00001310021059105497944CDE903101146E9
:100400006846FFF7F9FE0FB000BD0000E5FFFFFFF3
:100410000A6802F8010B0A607047754600F02CF874
:10042000AE4605006946534620F00700854618B0E1
:1004300020B5FFF7BBFEBDE820404FF000064FF0AF
:1004400000074FF000084FF0000B21F00701AC4609
:10045000ACE8C009ACE8C009ACE8C009ACE8C00928
:100460008D46704710B50446AFF300802046BDE8C6
:100470001040FFF787BE00000048704714010020BD
:1004800001491820ABBEFEE7260002007047FEE7D8
:100490001FB52020009001200190032003906946A1
:1004A000014800F09FF81FBD001001402DE9F04108
:1004B0000025154E2C4601272021304600F072F908
:1004C0000028F9D0282001F051FC2021304600F00E
:1004D00069F901280BD0C4F1070007FA00F0854341
:1004E000641CE4B2082CE7D32846BDE8F081202143
:1004F000304600F057F90128F9D0C4F1070007FA97
:1005000000F0C0B20543EBE7001001407FB50446A0
:10051000FFF7BEFF274D00222021284600F04FF9AB
:10052000122000F04DF801222021284600F047F962
:100530001E2001F01BFC2020009000200190029062
:100540006946284600F04EF82021284600F02AF996
:1005500070BB2021284600F025F90028F9D0202181
:10056000284600F01FF90128F9D0FFF79FFF2070FF
:10057000FFF79CFF6070FFF799FFA070FFF796FFF1
:10058000E070FFF793FF2071FFF782FF0122202127
:10059000284600F014F920786178E2780844A178C0
:1005A000114408442179884202D1012004B070BD71
:1005B0000020FBE700100140704772B6FEE7000024
:1005C00070B5044600F000F90546601C02D00448EE
:1005D0000078044400F0F8F8401BA042FAD370BD44
:1005E0002C0000202DE9F84FDFF89C910024A9F1A0
:1005F000040B23460F2709F1040AABF1040EBBE0FC
:100600000125A5402A40AA4276D1DFF880C14E6874
:10061000A6EB0C0866452BD00DDC032E34D005DC90
:1006200036B3012E19D0022E2FD11BE0112E16D079
:10063000122E2AD119E0B8F5881F19D006DCB8F5BA
:10064000803F15D0B8F5801F1FD111E0B8F5001F0D
:100650000ED0B8F5041F18D10AE0CB6815E0CB68BE
:100660001B1D12E0CB6808330FE0CB680C330CE0A5
:100670008B682BB1012B4FF0080303D0456104E0D8
:10068000042302E0056100E00023FF2A01D80646AA
:1006900001E000F104064FEA840501D9A5F1200527
:1006A000D6F8008007FA05FC28EA0C0803FA05F5DD
:1006B00048EA0508C6F800804D68ED005BD5344D6A
:1006C000AE6946F00106AE61AD6924F0030605F09F
:1006D000010500952F4D06EB050CDCF80850A60728
:1006E000360F07FA06F825EA0805DFF8AC80404522
:1006F00003D14FF0000810E03DE0DFF8A080404556
:1007000002D14FF0010808E0DFF89480404502D1A3
:100710004FF0020801E04FF0030808FA06F848EA33
:100720000508CCF808804D68D9F80060ED024D4608
:1007300001D5164300E096432E604D68DAF800605C
:10074000AD02554601D5164300E096432E604D6834
:10075000DBF80060AD035D4601D5164300E096432B
:100760002E604D68DEF80060ED03754601D5164336
:1007700000E096432E60641C0A6832FA04F57FF4A8
:100780003FAFBDE8F88F00000804014000001110E1
:10079000001002400000014000080140000C014030
:1007A000001001408068084000D001207047C268F6
:1007B00021EA02030A4043EA0241016170470AB19B
:1007C000016170470904FBE7014880687047000039
:1007D0002C00002002488168027811448160704733
:1007E0002C000020074810B5016841F0100101609D
:1007F000032000F06DF80F2000F006F800F024F858
:10080000002010BD0020024070B50D4D04464FF48D
:100810007A712878B1FBF0F00A490968B1FBF0F071
:1008200000F0D4FA48B9102C07D200222146501EFD
:1008300000F02EF800206C6070BD012070BD00003B
:100840002C00002038000020094808B5816941F0DB
:1008500001018161816901F001010091C16941F0EB
:100860008051C161C06900F08050009008BD000057
:1008700000100240002809DB00F01F020121914016
:100880004009800000F1E020C0F80011704700002E
:10089000F0B40E4B1B680C46C3F30223C3F10705EB
:1008A000042D00D90425191D072901D2002300E0D9
:1008B000DB1E012606FA05F1491E214099409E40A3
:1008C000761E16403143F0BC01F03FBA0CED00E05B
:1008D000064900F0070208684FF6FF03184040EA97
:1008E0000220034A10430860704700000CED00E04E
:1008F0000000FA052DE9F0470F46050061D0434E90
:10090000306800F00700B84209D2306820F00700D4
:1009100038433060306800F00700B84251D1286891
:100920003B4C810712D5400703D5606840F4E06076
:1009300060602878000703D5606840F4605060600C
:100940006068A96820F0F000084360602878C0075C
:1009500028D06868012810D02168022810D08907A3
:1009600000292EDA616821F0030101436160FFF77D
:100970002BFF804641F288390DE021688903EFE7BB
:100980008901EDE7FFF720FFA0EB0801494502D9F7
:100990000320BDE8F0876068696800F00C00B0EBE8
:1009A000810FEFD1306800F00700B8420BD93068F2
:1009B00020F0070038433060306800F00700B8428C
:1009C00001D00120E5E72878400705D56068E9688F
:1009D00020F4E060084360602878000706D560686E
:1009E000296920F4605040EAC100606000F038F8E6
:1009F0006168084AC1F30311515CC84006490860A8
:100A000006480068FFF700FF0020C2E70020024010
:100A10000010024072200008380000203000002042
:100A20000448054900684968044AC1F30221515C41
:100A3000C8407047380000200010024082200008A3
:100A40000448054900684968044AC1F3C221515C61
:100A5000C840704738000020001002408220000883
:100A60000E4A51680E4801F00C03042B11D0082BDC
:100A70000FD10C48C1F38343C903C05C0AD5516848
:100A8000084AC1F34041921E515C054A5043B0FBF5
:100A9000F1F07047044948437047000000100240DD
:100AA00000127A006220000800093D002DE9F84F8D
:100AB000040070D02078C04DC00749D06868C0F3EA
:100AC0008100012807D06868C0F38100022809D19D
:100AD0006868C00306D52868800339D56068002897
:100AE000E7D035E06068B0F5803F0BD010B1B0F5CD
:100AF000A02F11D0286820F480302860286820F4C6
:100B0000802002E0286840F480302860606890B15E
:100B1000FFF75AFE06460AE0286840F48020286065
:100B2000F0E700BFFFF750FE801B642873D82868E9
:100B30008003F7D50CE0FFF747FE064605E000BF4F
:100B4000FFF742FE801B6428F0D828688003F7D4A2
:100B500020789A4E80074FF001094FF0000839D5F0
:100B6000686810F00C0F07D06868C0F38100022895
:100B700009D16868C00306D42868800714D52069A5
:100B8000012808D110E02069B0B1C6F80090FFF745
:100B90001BFE074605E00AE1FFF716FEC01B022810
:100BA000C4D828688007F7D52868616920F0F80064
:100BB00040EAC10028600DE0C6F80080FFF704FE9F
:100BC000074604E0FFF700FEC01B022823D8286870
:100BD0008007F7D4207800072CD57948A169D9B1CE
:100BE000C0F80090FFF7F0FD074604E0FFF7ECFDCA
:100BF000C01B02280FD8686A8007F7D571484FF4E8
:100C0000FA510068B0FBF1F0009000BF0098411E5F
:100C10000091FAD20EE080E0C0F80080FFF7D4FD2A
:100C2000074604E0FFF7D0FDC01B022875D8686AAC
:100C30008007F7D42078400760D5E8690027C00016
:100C400008D4E86940F08050E861E869012700F0C5
:100C5000805000905C480168C90513D40168834640
:100C600041F480710160FFF7AFFD824606E000BFEE
:100C7000FFF7AAFDA0EB0A0064284ED8DBF80000BD
:100C8000C005F5D5E06801280AD008B1052813D0C1
:100C9000286A20F001002862286A20F0040002E09F
:100CA000286A40F001002862E06841F2883B98B170
:100CB000FFF78AFD82460BE0286A40F004002862B4
:100CC000EEE700BFFFF780FDA0EB0A0159455AD8B7
:100CD000286A8007F6D50CE0FFF776FD824605E02E
:100CE000FFF772FDA0EB0A0159454CD8286A80072E
:100CF000F6D41FB1E86920F08050E861E06988B35C
:100D00006968C1F38101022944D00228C6F86080D5
:100D100004D0FFF759FD044638E034E0FFF754FDF6
:100D2000074604E0FFF750FDC01B02282BD82868B7
:100D30008001F7D4206AB0F5803F05D16868A168CA
:100D400020F4003008436860D4E90801084369686A
:100D500021F4741108436860C6F86090FFF734FD11
:100D6000044606E025E000BFFFF72EFD001B022829
:100D700009D828688001F7D51BE000BFFFF724FDE4
:100D8000001B022802D90320BDE8F88F28688001E3
:100D9000F4D40EE00128F7D06868226A00F48031AC
:100DA000914204D1616A00F47010884201D00120A0
:100DB000EAE70020E8E7000000100240000042429D
:100DC00080044242380000200070004010B5401EF0
:100DD000B0F1807F01D3012010BD4FF0E0246061AD
:100DE0000F21601700F0B1FF0020A06107202061F3
:100DF000002010BD7047704770B590F83C20012A64
:100E000023D0012480F83C40022280F83D20036872
:100E10005A689D6822F070060A6832435A600C4B8B
:100E200002689A4205D0B2F1804F02D0094B9A4233
:100E300004D1496825F080031943916080F83D4052
:100E4000002180F83C10084670BD022070BD0000F3
:100E5000002C01400004004010B5040003D094F8B9
:100E60003D0010B107E0012010BD002084F83C00D7
:100E7000204600F01FF8022084F83D00211D206864
:100E800000F0B6FD012084F8460084F83E0084F8A6
:100E90003F0084F8400084F8410084F8420084F860
:100EA000430084F8440084F8450084F83D000020A5
:100EB00010BD000008B5114A01681148914208D1DF
:100EC000816941F400618161806900F400600090F3
:100ED00008BDB1F1804FFBD1C16941F00101C16191
:100EE000C069002200F00100009011461C20FFF7AD
:100EF000CFFCBDE808401C20FFF7BCBC002C014023
:100F00000010024090F83D10012901D001207047E7
:100F1000022180F83D1000680949884205D0B0F1EF
:100F2000804F02D00749884204D1816801F007014F
:100F3000062903D0016841F00101016000207047DB
:100F4000002C01400004004090F83D10012901D020
:100F500001207047022180F83D100168CA6842F004
:100F60000102CA6000680A49884205D0B0F1804F8A
:100F700002D00849884204D1816801F0070106299E
:100F800003D0016841F001010160002070470000BA
:100F9000002C01400004004001680A6A41F211136C
:100FA0001A4207D10A6A9B101A4203D10A6822F03A
:100FB00001020A60012180F83D100020704770B5E1
:100FC000044690F83C000025012817D0012684F83B
:100FD0003C60022084F83D002068826822F077029D
:100FE00022F47F4282600868502838D00DDC202827
:100FF0004FD005DC90B3102811D14AE0022070BD1B
:10100000302846D040280AD13BE060282FD07028F5
:101010000DD0B0F5805F03D0B0F5005F12D0012590
:1010200084F83D60002084F83C00284670BDCB6801
:10103000D1E90121206800F016FD2068816841F0A7
:10104000770109E0CB68D1E90121206800F00BFDB0
:101050002068816841F480418160E1E719E0CA6855
:101060004968206800F0B4FD5021206806E0CA6895
:101070004968206800F0BDFD6021206800F0FDFC9B
:10108000CEE7CA684968206800F0A2FD40212068C8
:10109000F4E7226801461046F0E7704770B5044651
:1010A000006801694FF00005C943890715D4C1687C
:1010B000C943890711D4E91E016101202077206806
:1010C00080698007204602D0FFF7E7FF04E000F0C8
:1010D000C9F8204600F05BF9257720680169C9430B
:1010E000490717D4C168C943490713D46FF00401F5
:1010F0000161022020772068806910F4407F20463B
:1011000002D0FFF7CAFF04E000F0ACF8204600F080
:101110003EF9257720680169C943090716D4C168DB
:10112000C943090712D46FF0080101610420207738
:101130002068C0698007204602D0FFF7AEFF04E0B8
:1011400000F090F8204600F022F925772068016928
:10115000C943C90617D4C168C943C90613D46FF07F
:1011600010010161082020772068C06910F4407FD9
:10117000204602D0FFF791FF04E000F073F820460C
:1011800000F005F9257720680169C943C90708D12E
:10119000C168C943C90704D1891E0161204600F016
:1011A00041F920680169C943090609D4C168C943E6
:1011B000090605D46FF0800101612046FFF71AFE91
:1011C00020680169C943490609D4C168C943490671
:1011D00005D46FF040010161204600F029F9206834
:1011E0000169C94389060BD4C168C943890607D47C
:1011F0006FF0200101612046BDE87040FFF7FBBDA4
:1012000070BD000000B585B00021009101910291F0
:1012100003910068B0F1804F1BD10F48816941F004
:10122000040181618069694600F0040004904FF474
:10123000004000900220019003900848FFF7D2F987
:101240000748416821F4407141F0E06141F4807148
:10125000416005B000BD00000010024000080140E0
:1012600000000140704770B5044690F83C0000262D
:101270000D4601280FD0012084F83C006AB1042AF1
:101280001DD0082A2FD00C2A3FD00126002084F838
:101290003C00304670BD022070BD206800F0F6FBB7
:1012A0002068816941F0080181612068816921F02D
:1012B00004018161206881692A69114311E0206875
:1012C00000F00CFC2068816941F4006181612068B4
:1012D000816921F480618161206881692A6941EA1C
:1012E00002218161D2E7206800F024FC2068C169F6
:1012F00041F00801C1612068C16921F00401C161A8
:101300002068C1692A69114311E0206800F03EFCA1
:101310002068C16941F40061C1612068C16921F49C
:101320008061C1612068C1692A6941EA0221C16105
:10133000ACE710B5040003D094F83D0010B107E00D
:10134000012010BD002084F83C00204600F01EF86B
:10135000022084F83D00211D206800F049FB012097
:1013600084F8460084F83E0084F83F0084F840008A
:1013700084F8410084F8420084F8430084F8440073
:1013800084F8450084F83D00002010BD7047704788
:1013900010B50446022249B104290ED0082913D001
:1013A00094F84100012816D0012010BD94F83E00A9
:1013B0000128F9D184F83E200FE094F83F0001287D
:1013C000F2D184F83F2008E094F840000128EBD1E6
:1013D00084F8402001E084F841200122206800F0D8
:1013E00035FB0E492068884203D1426C42F400422A
:1013F00042642068884205D0B0F1804F02D008498D
:10140000884204D1816801F00701062903D00168F0
:1014100041F001010160002010BD0000002C0140DE
:101420000004004010210148FFF7C1B9001001403D
:10143000704770B5040004D094F84100002510B145
:1014400006E0012070BD84F84050204600F024F8EA
:10145000242084F841002068C16821F40051C16053
:10146000204600F0D9FB2068016921F49041016118
:101470002068416921F02A0141612068C16841F476
:101480000051C1606564202084F8410084F8420066
:101490006563002070BD000010B586B0002100918A
:1014A00001910291039100681349884222D11348A7
:1014B000816941F480418161816901F48041049135
:1014C000816941F00401816180690D4C00F00400E4
:1014D00004904FF48060009069462046FFF782F840
:1014E0006015009002200190032003906946204679
:1014F000FFF778F806B010BD003801400010024038
:10150000000801402DE9F843044690F841001F46C9
:1015100016460D46202802D00220BDE8F8837DB192
:1015200076B100206064212084F84100FFF74CF977
:10153000A6848046E684A068B0F5805F02D003E010
:101540000120EAE7206910B12E4600250EE00026B2
:101550000CE08021204600F0BBFBA0B9AEB116F82C
:10156000010B21684860E08C401EE084E08C43461B
:101570004FF0000200970028EBD14FF040012046C9
:1015800000F0A6FB30B10320C7E735F8020BC0F32B
:101590000800E6E7202084F841000020BDE7FEE7D0
:1015A00010B5012000F006F8BDE810400520FFF757
:1015B00007B8000070B50B4D0446002208212846EC
:1015C000FFF7FDF8002210212846FFF7F8F805483C
:1015D0000C30016864F31F210160BDE8704000F029
:1015E0006FB80000000C014008B509A2022912687A
:1015F000009200D30021074AD07011711DF801102C
:101600000844C0B240F08000FFF7D4FF08BD0000DE
:10161000004014540000002070B50B4D0446012218
:1016200008212846FFF7CBF8002210212846FFF7B3
:10163000C6F805480C30016864F31F210160BDE85D
:10164000704000F03DB80000000C01402DE9F04171
:101650004FF0E024064660694FF47A71401CB0FBFD
:10166000F1F5A069B0FBF5F0C0F57A77FFF7ACF8BB
:1016700000EB4001C1EBC01007EBC0074FEA0408C4
:10168000D8F81800B0FBF5F0C0F57A74FFF79CF8B5
:1016900000EB4001C1EBC01004EBC000C01BB04226
:1016A000EED3BDE8F08100000449087840F0040062
:1016B000087040F00800FFF77DBF00000000002028
:1016C00010B5094C012220212046FFF778F832207E
:1016D000FFF7BCFF002220212046FFF770F8BDE88D
:1016E00010403220FFF7B2BF000C014010B50C4C87
:1016F0000020E0702071182060703820FFF75AFF3A
:1017000004202070FFF7D0FF0220A0700620FFF712
:1017100051FFFFF745FFBDE810400520FEF750BF21
:101720000000002070B51546FFF75EFF134C15E072
:10173000E078102807D30020E0702179491CC9B255
:101740002171FFF751FF28780A280BD00D280FD000
:10175000FFF762FFE078401CE0706D1C28780028DD
:10176000E6D170BD2079401CC1B22171E07801E062
:1017700021790020FFF738FFEFE70000000000208C
:101780002DE9F04186B00026294800960196029680
:101790000396816941F010018161816901F01001B6
:1017A0000491816941F008018161816901F00801BA
:1017B0000491816941F004018161816901F00401B2
:1017C0000491816941F0200181618069194F00F025
:1017D00020004FF639740490002221463846FEF767
:1017E000EEFFDFF8548000224FF47C714046FEF794
:1017F000E6FF009401240225694638460194CDE9AC
:101800000245FEF7EFFE4FF4747003958DE851002A
:1018100069464046FEF7E6FE2020CDE90004694611
:101820004046CDE90245FEF7DDFE06B0BDE8F08199
:1018300000100240000C01400010014010B586B0BD
:1018400000241748009401940294039404941349CB
:10185000059401604721C0E901144FF6FF71C0E90A
:10186000031444618461FFF7F7FA08B1FEF7A5FE9F
:101870004FF48050009069460948FFF7A0FB08B17B
:10188000FEF79BFE049404A905480594FFF7B4FAFB
:10189000002801D0FEF791FE06B010BD002C0140DB
:1018A0003C00002010B58EB00024079408940994E1
:1018B0000A940B941C2168460C94FEF70DFD1F48FA
:1018C0004FF08041016041F29311C0E901144FF6DD
:1018D000FF11C0E903148461FFF7BEFA08B1FEF7F7
:1018E0006CFE4FF48050079007A91448FFF767FB80
:1018F00008B1FEF762FE1148FFF71BFD08B1FEF7C5
:101900005CFE0B940BA90D480C94FFF775FA08B117
:10191000FEF753FE602000904BF67F30CDE90104C6
:101920000022694605480494FFF79DFC08B1FEF7C4
:1019300044FE0248FFF766FC0EB010BD8400002094
:101940000C4810B50A4901604FF41651416000215E
:1019500081600C22C160C0E904128161C161FFF79E
:1019600068FD002803D0BDE81040FEF726BE10BD7C
:1019700000380140CC000020FEE7FEE770477047CA
:10198000FEF728BF30B58FB028216846FEF7A4FCCB
:1019900014210AA8FEF7A0FC01210804CDE90010DB
:1019A0000024029402250491CDE907504FF4E01081
:1019B00009906846FFF77AF808B172B6FEE70F2083
:1019C000CDE90A054FF48060CDE90C4002210AA858
:1019D0000E94FEF78FFF002801D072B6FEE70FB01D
:1019E00030BD70470148FFF759BB0000840000205C
:1019F00070B50268134B144C4FF08046984203D0E8
:101A0000B04201D0A04203D122F070054A682A43B7
:101A1000984203D0B04201D0A04203D122F44074D6
:101A2000CA6822434C6922F08002224302608A681D
:101A3000C2620A688262984201D109690163012188
:101A4000416170BD002C01400004004010B501F060
:101A50001F030121046A99408C430462016A9A4081
:101A60001143016210BD10B5846842EA032224F4D8
:101A70007F440A432243826010BD826822F07002D4
:101A80000A4342F0070181607047000030B5036AE5
:101A9000026A22F0010202624268846924F073053E
:101AA0000C682C4323F002058B682B430A4DA84297
:101AB0000BD123F00805CB6822F440722B434D690B
:101AC00023F0040315438A692A434260846149680C
:101AD0004163036230BD0000002C014030B5026A52
:101AE000036A23F010030362436884690D6824F4D9
:101AF000E64444EA05248D6822F0200242EA0512F9
:101B00000B4DA8420ED1CD6822F0800242EA0512A8
:101B10004D6923F4406343EA85038D6922F0400256
:101B200043EA85034360846149688163026230BD92
:101B3000002C014030B5036A026A22F4807202620E
:101B40004268C46923F4007324F073050C682C43C5
:101B50008D6843EA05230C4DA8420ED1CD6823F4CD
:101B6000006343EA05234D6922F4405242EA05121C
:101B70008D6923F4806342EA05124260C4614968BA
:101B8000C163036230BD0000002C014030B5046A1F
:101B9000026A22F4805202624268C3690D6823F42B
:101BA000E64343EA05238D6824F4005444EA0534EF
:101BB000064DA84204D14D6922F4804242EA8512C2
:101BC0004260C36149680164046230BD002C014079
:101BD00010B5036A046A24F001040462846924F0E5
:101BE000F00444EA021423F00A020A438461026208
:101BF00010BD10B5036A046A24F0100404628469FD
:101C000023F0A00324F4704444EA023243EA0111B1
:101C10008261016210BD000070B504460068016970
:101C2000E26821F44051114301612169A068084331
:101C3000616908432168CA6841F20C639A43024310
:101C4000CA6020684169A26921F440711143416171
:101C50001E492068884202D1FEF7F2FE01E0FEF73D
:101C6000DFFE00EBC00101EB001260686421800020
:101C7000B2FBF0F3B3FBF1F36FF018067343B2FB62
:101C8000F0F5B2FBF0F605EB8305322303EB051507
:101C9000B5FBF1F5B6FBF1F605F0F00505EB061521
:101CA000B2FBF0F6B2FBF0F0B0FBF1F06FF018020F
:101CB000504306EB800003EB0010B0FBF1F021680D
:101CC00000F00F002844886070BD0000003801401B
:101CD0002DE9F041984617460E460446069D27E03A
:101CE000681C25D02DB1FEF76FFDA0EB0800A842BF
:101CF0001ED920680C3050E8001F21F4D07140E854
:101D00000012002AF5D12068143050E8001F21F09D
:101D1000010140E80012002AF5D1202084F841009A
:101D200084F84200002084F840000320BDE8F081E0
:101D30002068006836EA000004D00020B842CFD006
:101D40000020F3E70120F9E7FEE70907090E002864
:101D500004DB00F1E02080F80014704700F00F0071
:101D600000F1E02080F8141D7047000070B54FF6B8
:101D7000FA710A4D081A84B2286844622846FFF7AF
:101D8000C1F84FF6F971286801E0426A94B28C42BA
:101D9000FBD3BDE870400148FFF7FEB83C000020CF
:101DA000FEF720FDFFF7EEFDFFF7EAFCFFF746FD2B
:101DB000FFF778FDFFF7C4FD7C48FFF7C5F8002169
:101DC0007A48FFF7E5FAFFF791FC7948FEF79EFBAA
:101DD000774DA5F11C0448B1FFF7E2FB2B78AA78F8
:101DE00074A12069FEF7F4F9226902E0FFF7D8FB3D
:101DF00074A200210846FFF795FC0026DFF8D08189
:101E0000DFF8D0B137464FF400794FF4807A684854
:101E1000FEF77CFB002879D0FFF7C2FB2B78AA786D
:101E20006DA12069FEF7D4F9002108462269FFF769
:101E300079FCA878A168884209DCE168884206DB61
:101E400028786168884202DB2168884279DD0022B7
:101E500001215846FEF7B3FCA878A168884216DD38
:101E6000002249464046FEF7AAFC01225146404660
:101E7000FEF7A5FC012E2ED0AA785CA16069FEF7C2
:101E8000A7F95E48616900F0DFF8012623E0E16808
:101E9000884216DA002251464046FEF790FC0122A5
:101EA00049464046FEF78BFC022E14D0AA7854A176
:101EB0006069FEF78DF95148616900F0C5F80226A6
:101EC00009E0012251464046FEF779FC01224946CD
:101ED0004046FEF774FC28782168884217DD00220E
:101EE00080214046FEF76BFC012240214046FEF770
:101EF00066FC012F8BD02A7845A1A069FEF768F90E
:101F00003E48A16900F0A0F8012780E746E061683B
:101F1000884217DA002240214046FEF750FC012299
:101F200080214046FEF74BFC022FEED02A783CA1E0
:101F3000A069FEF74DF93148A16900F085F8022744
:101F400065E708E0012240214046FEF738FC012207
:101F5000802140461FE0012240214046FEF72FFC31
:101F6000012280214046FEF72AFC012251464046CC
:101F7000FEF725FC012249464046FEF720FC56EAC2
:101F8000070005D02AA11D4800F05EF8002637465C
:101F9000012211465846FEF712FC38E7FFF700FB16
:101FA000002108A20846FFF7BDFB30E784000020AF
:101FB0002400002054656D703A25642048756D3A00
:101FC000256400004572726F72212121000000001B
:101FD00000100140000C014054656D703A256420EA
:101FE00048756D3A25640D0A000000004F76657251
:101FF0002054656D703A25640D0A0000CC00002065
:102000004C6F772054656D703A25640D0A0000000E
:102010004F7665722048756D3A25640D0A00000000
:102020004C6F772048756D3A25640D0A000000005A
:1020300053617665640D0A0013B54FF6FF730122F4
:1020400001A9FFF75FFA1CBD70B50C46054603E019
:102050002846641CFFF7F0FF21780029F8D170BDF5
:10206000010202030405060708090A0B0C0D0E0FF6
:102070001010000000000000000001020304060729
:10208000080900000000010203040000AC20000861
:10209000000000203C00000028010008E8200008A3
:1020A0003C0000203C070000440100080000000044
:1020B00000000000280000001900000028000000B7
:1020C00014000000000000000000000000000000FC
:1020D00000000000000000000100000010000000EF
:0820E000000000000024F400E0
:04000005080000ED02
:00000001FF
